S011000048616E645F4C6D63752E73726563A8
S31508000000008001202138000801250008072500087E
S315080000100D25000813250008192500080000000012
S315080000200000000000000000000000001F25000876
S315080000302D250008000000003B250008492500087A
S3150800004071380008713800087138000871380008DE
S3150800005071380008713800086925000877250008F6
S3150800006085250008713800089325000871380008AE
S31508000070A125000871380008713800087138000891
S31508000080713800087138000871380008713800089E
S31508000090713800087138000871380008B52500085D
S315080000A0713800087138000871380008713800087E
S315080000B0713800087138000871380008713800086E
S315080000C0713800087138000871380008713800085E
S315080000D0713800087138000871380008713800084E
S315080000E0C3250008713800087138000871380008FF
S315080000F0713800087138000871380008713800082E
S31508000100713800087138000871380008713800081D
S31508000110F52500087138000871380008713800089C
S3150800012071380008713800087138000871380008FD
S3150800013071380008713800087138000871380008ED
S3150800014071380008713800087138000871380008DD
S3150800015071380008713800087138000871380008CD
S3150800016071380008713800087138000871380008BD
S31508000170713800087138000871380008000000005E
S30D08000180713800087138000807
S3150800019010B5054C237833B9044B13B10448AFF3B3
S315080001A000800123237010BDD40100200000000048
S315080001B0C0D8000808B5034B1BB103490348AFF381
S315080001C0008008BD00000000D8010020C0D8000843
S315080001D001F0FF01102A2BDB10F0070F08D010F8EA
S315080001E0013B013A8B422DD010F0070F42B3F6D1EE
S315080001F0F0B441EA012141EA014122F007047FF007
S3150800020000070023F0E80256083C85EA010586EA5D
S31508000210010685FA47F5A3FA87F586FA47F6A5FA99
S3150800022087F68EB9EED1F0BC01F0FF0102F00702A5
S3150800023032B110F8013B013A83EA010313B1F8D150
S315080002400020704701387047002D06BF3546033831
S31508000250073815F0010F07D1013015F4807F02BF6A
S31508000260013015F4C03F0130F0BC0138704700BFBB
S31508000270034613F8012B002AFBD1181A01387047D8
S3150800028081F0004102E000BF83F0004330B54FEA39
S3150800029041044FEA430594EA050F08BF90EA020FA6
S315080002A01FBF54EA000C55EA020C7FEA645C7FEA39
S315080002B0655C00F0E2804FEA5454D4EB5555B8BF5C
S315080002C06D420CDD2C4480EA020281EA030382EACD
S315080002D0000083EA010180EA020281EA0303362D5F
S315080002E088BF30BD11F0004F4FEA01314FF4801C32
S315080002F04CEA113102D0404261EB410113F0004F44
S315080003004FEA03334CEA133302D0524263EB4303FA
S3150800031094EA050F00F0A780A4F10104D5F1200E98
S315080003200DDB02FA0EFC22FA05F2801841F10001F3
S3150800033003FA0EF2801843FA05F359410EE0A5F1C7
S3150800034020050EF1200E012A03FA0EFC28BF4CF0F8
S31508000350020C43FA05F3C01851EBE37101F00045AE
S3150800036007D54FF0000EDCF1000C7EEB00006EEBBB
S315080003700101B1F5801F1BD3B1F5001F0CD3490845
S315080003805FEA30004FEA3C0C04F101044FEA44529C
S3150800039012F5800F80F09A80BCF1004F08BF5FEA23
S315080003A0500C50F1000041EB045141EA050130BD03
S315080003B05FEA4C0C404141EB0101013C28BFB1F515
S315080003C0801FE9D291F0000F04BF01460020B1FA60
S315080003D081F308BF2033A3F10B03B3F120020CDA33
S315080003E00C3208DD02F1140CC2F10C0201FA0CF011
S315080003F021FA02F10CE002F11402D8BFC2F1200C76
S3150800040001FA02F120FA0CFCDCBF41EA0C0190402B
S31508000410E41AA2BF01EB0451294330BD6FEA040474
S315080004201F3C1CDA0C340EDC04F11404C4F120025F
S3150800043020FA04F001FA02F340EA030021FA04F371
S3150800044045EA030130BDC4F10C04C4F1200220FAC8
S3150800045002F001FA04F340EA0300294630BD21FA06
S3150800046004F0294630BD94F0000F83F4801306BFCC
S3150800047081F480110134013D4EE77FEA645C18BFC0
S315080004807FEA655C29D094EA050F08BF90EA020F57
S3150800049005D054EA000C04BF1946104630BD91EA4F
S315080004A0030F1EBF0021002030BD5FEA545C05D152
S315080004B04000494128BF41F0004130BD14F5800491
S315080004C03CBF01F5801130BD01F0004545F0FE4105
S315080004D041F470014FF0000030BD7FEA645C1ABF3A
S315080004E0194610467FEA655C1CBF0B46024650EA71
S315080004F0013406BF52EA033591EA030F41F400219D
S3150800050030BD00BF90F0000F04BF0021704730B522
S315080005104FF4806404F132044FF000054FF00001F7
S3150800052050E700BF90F0000F04BF0021704730B5B8
S315080005304FF4806404F1320410F0004548BF40428D
S315080005404FF000013EE700BF42004FEAE2014FEAE2
S3150800055031014FEA02701FBF12F07F4393F07F4FBD
S3150800056081F06051704732F07F4208BF704793F0C0
S315080005707F4F04BF41F40021704730B54FF46074D3
S3150800058001F0004521F000411CE700BF50EA0102D6
S3150800059008BF704730B54FF000050AE050EA01027F
S315080005A008BF704730B511F0004502D5404261EBEF
S315080005B041014FF4806404F132045FEA915C3FF430
S315080005C0D8AE4FF003025FEADC0C18BF03325FEACD
S315080005D0DC0C18BF033202EBDC02C2F1200300FA7E
S315080005E003FC20FA02F001FA03FE40EA0E0021FAA3
S315080005F002F11444BDE600BF70B54FF0FF0C4CF491
S31508000600E06C1CEA11541DBF1CEA135594EA0C0F42
S3150800061095EA0C0F00F0DEF82C4481EA030621EA7D
S315080006204C5123EA4C5350EA013518BF52EA0335B8
S3150800063041F4801143F4801338D0A0FB02CE4FF06A
S315080006400005E1FB02E506F00042E0FB03E54FF09A
S315080006500006E1FB03569CF0000F18BF4EF0010E92
S31508000660A4F1FF04B6F5007F64F5407404D25FEA8E
S315080006704E0E6D4146EB060642EAC62141EA555141
S315080006804FEAC52040EA5E504FEACE2EB4F1FD0C83
S3150800069088BFBCF5E06F1ED8BEF1004F08BF5FEA01
S315080006A0500E50F1000041EB045170BD06F00046B3
S315080006B046EA010140EA020081EA0301B4EB5C0460
S315080006C0C2BFD4EB0C0541EA045170BD41F4801158
S315080006D04FF0000E013C00F3AB8014F1360FDEBF7D
S315080006E0002001F0004170BDC4F10004203C35DA59
S315080006F00C341BDC04F11404C4F1200500FA05F3DC
S3150800070020FA04F001FA05F240EA020001F000427C
S3150800071021F0004110EBD37021FA04F642EB0601F2
S315080007205EEA430E08BF20EAD37070BDC4F10C041C
S31508000730C4F1200500FA04F320FA05F001FA04F2E0
S3150800074040EA020001F0004110EBD37041F10001CC
S315080007505EEA430E08BF20EAD37070BDC4F12005D7
S3150800076000FA05F24EEA020E20FA04F301FA05F23F
S3150800077043EA020321FA04F001F0004121FA04F2E7
S3150800078020EA020000EBD3705EEA430E08BF20EAB7
S31508000790D37070BD94F0000F0FD101F000464000F1
S315080007A041EB010111F4801F08BF013CF7D041EA73
S315080007B0060195F0000F18BF704703F00046520077
S315080007C043EB030313F4801F08BF013DF7D043EA48
S315080007D00603704794EA0C0F0CEA135518BF95EAFE
S315080007E00C0F0CD050EA410618BF52EA4306D1D185
S315080007F081EA030101F000414FF0000070BD50EAA4
S31508000800410606BF1046194652EA430619D094EA2D
S315080008100C0F02D150EA013613D195EA0C0F05D117
S3150800082052EA03361CBF104619460AD181EA03016B
S3150800083001F0004141F0FE4141F470014FF0000023
S3150800084070BD41F0FE4141F4780170BD70B54FF0BE
S31508000850FF0C4CF4E06C1CEA11541DBF1CEA13553E
S3150800086094EA0C0F95EA0C0F00F0A7F8A4EB050420
S3150800087081EA030E52EA03354FEA013100F0888017
S315080008804FEA03334FF0805545EA131343EA1263E0
S315080008904FEA022245EA111545EA10654FEA002695
S315080008A00EF000419D4208BF964244F1FD0404F54E
S315080008B0407402D25B084FEA3202B61A65EB0305AA
S315080008C05B084FEA32024FF480104FF4002CB6EB67
S315080008D0020E75EB030E22BFB61A754640EA0C00E7
S315080008E05B084FEA3202B6EB020E75EB030E22BF27
S315080008F0B61A754640EA5C005B084FEA3202B6EB68
S31508000900020E75EB030E22BFB61A754640EA9C0026
S315080009105B084FEA3202B6EB020E75EB030E22BFF6
S31508000920B61A754640EADC0055EA060E18D04FEAB4
S31508000930051545EA16754FEA06164FEAC30343EA54
S3150800094052734FEAC2025FEA1C1CC0D111F4801F21
S315080009500BD141EA00014FF000004FF0004CB6E71A
S3150800096011F4801F04BF01430020B4F1FD0C88BFB9
S31508000970BCF5E06F3FF6AFAEB5EB030C04BFB6EBC4
S31508000980020C5FEA500C50F1000041EB045170BDB7
S315080009900EF0004E4EEA113114EB5C04C2BFD4EBE4
S315080009A00C0541EA045170BD41F480114FF0000E68
S315080009B0013C90E645EA060E8DE60CEA135594EAE4
S315080009C00C0F08BF95EA0C0F3FF43BAF94EA0C0FE7
S315080009D00AD150EA01347FF434AF95EA0C0F7FF45C
S315080009E025AF104619462CE795EA0C0F06D152EAB0
S315080009F003353FF4FDAE1046194622E750EA410694
S31508000A0018BF52EA43067FF4C5AE50EA41047FF4A4
S31508000A100DAF52EA43057FF4EBAE12E74FF0FF3C09
S31508000A2006E000BF4FF0010C02E000BF4FF0010CDA
S31508000A304DF804CD4FEA410C7FEA6C5C4FEA430C53
S31508000A4018BF7FEA6C5C1BD001B050EA410C0CBFA2
S31508000A5052EA430C91EA030F02BF90EA020F002004
S31508000A60704710F1000F91EA030F58BF994208BF6B
S31508000A7090422CBFD8176FEAE37040F00100704728
S31508000A804FEA410C7FEA6C5C02D150EA013C07D17F
S31508000A904FEA430C7FEA6C5CD6D152EA033CD3D0CA
S31508000AA05DF8040B704700BF8446104662468C46C4
S31508000AB01946634600E000BF01B5FFF7B7FF0028F7
S31508000AC048BF10F1000F01BD4DF808EDFFF7F4FF20
S31508000AD00CBF012000205DF808FB00BF4DF808EDAB
S31508000AE0FFF7EAFF34BF012000205DF808FB00BFCE
S31508000AF04DF808EDFFF7E0FF94BF012000205DF8F0
S31508000B0008FB00BF4DF808EDFFF7CEFF94BF0120A4
S31508000B1000205DF808FB00BF4DF808EDFFF7C4FF9D
S31508000B2034BF012000205DF808FB00BF4FEA410CE6
S31508000B307FEA6C5C02D150EA013C0AD14FEA430CC9
S31508000B407FEA6C5C02D152EA033C02D14FF0000006
S31508000B5070474FF0010070474FEA410212F5001244
S31508000B6015D211D56FF47873B3EB625212D94FEAE6
S31508000B70C12343F0004343EA505311F0004F23FAD0
S31508000B8002F018BF404270474FF00000704750EA25
S31508000B90013005D111F0004008BF6FF000407047E2
S31508000BA04FF00000704700BF4A0011D212F500123C
S31508000BB011D20DD56FF47873B3EB62520ED44FEAA7
S31508000BC0C12343F0004343EA505323FA02F0704727
S31508000BD04FF00000704750EA013002D14FF0FF3065
S31508000BE070474FF0000070474FEA4102B2F1E04308
S31508000BF024BFB3F5001CDCF1FE5C0DD901F0004CF6
S31508000C004FEAC0024CEA5070B2F1004F40EB830045
S31508000C1008BF20F00100704711F0804F21D113F171
S31508000C203872BCBF01F00040704741F480114FEAAA
S31508000C305252C2F11802C2F1200C10FA0CF320FA33
S31508000C4002F018BF40F001004FEAC1234FEAD32350
S31508000C5003FA0CFC40EA0C0023FA02F34FEA4303BA
S31508000C60CCE77FEA625307D150EA01331EBF4FF043
S31508000C70FE4040F44000704701F0004040F0FE405E
S31508000C8040F40000704700BF53B94AB9002908BFAD
S31508000C9000281CBF4FF0FF314FF0FF3000F0A6B917
S31508000CA0ADF1080C6DE904CE00F03CF8DDF804E07F
S31508000CB0DDE9022304B0704738B500220023044654
S31508000CC00D46FFF70BFF28B920462946BDE83840F0
S31508000CD000F00AB8204605F1004100F005F8404248
S31508000CE061EB410138BD00BFD0B50C4B002206466A
S31508000CF00F46FFF781FCFFF757FF0446FFF702FC94
S31508000D00074B0022FFF778FC02460B463046394669
S31508000D10FFF7BAFAFFF748FF2146D0BD0000F03DBD
S31508000D200000F0412DE9F047089E0D4604460F469F
S31508000D30002B4AD18A42944665D9B2FA82F343B166
S31508000D4002FA03FCC3F120029F4020FA02F217437D
S31508000D509C404FEA1C4E1FFA8CF5B7FBFEF1220C9D
S31508000D600EFB117742EA074201FB05F090420AD9C9
S31508000D701CEB020201F1FF3780F01C81904240F221
S31508000D80198102396244121AA4B2B2FBFEF00EFBB4
S31508000D90102244EA024400FB05F5A5420AD91CEBD9
S31508000DA0040400F1FF3280F00781A54240F2048175
S31508000DB06444023840EA0140641B00211EB1DC404D
S31508000DC00023C6E90043BDE8F0878B4208D9002E08
S31508000DD000F0ED800021C6E900050846BDE8F08769
S31508000DE0B3FA83F1002949D1AB4202D3824200F219
S31508000DF0F880841A65EB030201201746002EE2D01C
S31508000E00C6E90047DFE702B9FFDEB2FA82F3002B34
S31508000E1040F090808A1A4FEA1C471FFA8CFE01217F
S31508000E20B2FBF7F507FB1520220C42EA00420EFB3F
S31508000E3005F0904208D91CEB020205F1FF3802D2F0
S31508000E40904200F2CB804546121AA4B2B2FBF7F0E4
S31508000E5007FB102244EA02440EFB00FEA64508D909
S31508000E601CEB040400F1FF3202D2A64500F2BB8057
S31508000E701046A4EB0E0440EA05409FE7C1F120079F
S31508000E808B4022FA07FC4CEA030C05FA01F420FA17
S31508000E9007F3FD404FEA1C492343B5FBF9F81FFA4F
S31508000EA08CFE09FB18551C0C44EA054408FB0EF594
S31508000EB0A54202FA01F200FA01F00BD91CEB040470
S31508000EC008F1FF3A80F08880A54240F28580A8F1B3
S31508000ED002086444641B9DB2B4FBF9F309FB13448E
S31508000EE045EA044403FB0EFEA64508D91CEB040498
S31508000EF003F1FF356CD2A6456AD9023B644443EA3E
S31508000F000843A3FB0295A4EB0E04AC42C846AE46C2
S31508000F1056D353D056B1B0EB080264EB0E0404FA6C
S31508000F2007F7CA40CC401743C6E9007418460021A3
S31508000F30BDE8F087C3F1200102FA03FC20FA01F2AA
S31508000F4025FA01F19D402A434FEA1C471FFA8CFEF9
S31508000F50B1FBF7F007FB1015110C41EA054100FB40
S31508000F600EF58D4204FA03F408D91CEB010100F1D1
S31508000F70FF382FD28D422DD902386144491B92B2CF
S31508000F80B1FBF7F507FB151142EA014205FB0EF125
S31508000F90914208D91CEB020205F1FF3816D291429C
S31508000FA014D9023D6244521A45EA004138E73146EF
S31508000FB0304608E73946E6E61046FBE64845A9D234
S31508000FC0B9EB020865EB0C0E013BA3E74546EAE7D9
S31508000FD02B4694E74046D1E7D0467BE7023D62447C
S31508000FE032E708460AE76444023842E7704700BF1A
S31508000FF080B582B000AF4649464809F0C8FE0346A8
S31508001000002B03D0444B00221A7002E0424B012207
S315080010101A704048FFF72CF903461A4650213D48F6
S31508001020FFF7D6F878607B680233184608F0FEFAB0
S3150800103053EC102B10461946FFF7D6FD0346374AE0
S3150800104013653448FFF714F903461A465221314806
S31508001050FFF7BEF878607B680233184608F0E6FAB0
S3150800106053EC102B10461946FFF7BEFD03462B4AD4
S31508001070D3632848FFF7FCF803461A464D2125484E
S31508001080FFF7A6F878607B680233184608F0CEFAB0
S3150800109053EC102B10461946FFF7A6FD03461F4AC8
S315080010A093621C48FFF7E4F803461A464921194893
S315080010B0FFF78EF878607B680233184608F0B6FAB0
S315080010C053EC102B10461946FFF78EFD0346134ABC
S315080010D053611048FFF7CCF803461A4654210D48C9
S315080010E0FFF776F878607B680233184608F09EFAB0
S315080010F053EC102B10461946FFF776FD0346074AB0
S315080011001360074B01221A7000BF0837BD4680BD21
S31508001110D8D80008F40100208D0200200806002017
S315080011208C02002080B584B000AF78607B681B68AD
S31508001130234A934240D1234B1B881A46224B1978DF
S31508001140224B99541F4B1B88012B2AD91D4B1B88F0
S315080011501A461E4B9B5C0A2B23D11A4B1B88013B54
S315080011601A4AD35C0D2B1CD1164B1B88023B174A17
S31508001170D35C7D2B15D1FFF73BFF154B01221A7067
S31508001180104B4FF6FF721A800023FB8106E0FB899D
S315080011900E4A0021D154FB890133FB81FB89952B2B
S315080011A0F5D9084B1B8801339AB2064B1A800122DF
S315080011B00549084806F054FF00BF1037BD4680BDF4
S315080011C0004C0040F00100208A020020F4010020B3
S315080011D0BC0600208005002080B483B000AF78608C
S315080011E07B681B68054A934202D1054B01221A7097
S315080011F000BF0C37BD465DF8047B704700380140D8
S315080012008B02002080B58AB000AF07F11C030022CC
S315080012101A605A609A603B1D00221A605A609A60EA
S31508001220DA601A615A614C4B4C4A1A604A4B4FF4C1
S3150800123080125A60484B00229A60474B0022DA60B7
S31508001240454B01221A61444B04225A61424B002243
S315080012501A76414B01225A763F4B0522DA613E4BFC
S31508001260002283F820203C4B00229A623A4B002247
S31508001270DA62394B002283F83020374B00225A6352
S31508001280354B002283F83820334802F061FD0346C7
S31508001290002B01D001F00AF90023FB6107F11C03BA
S315080012A019462D4803F0B0FC0346002B01D001F087
S315080012B0FDF82B4B7B600623BB600723FB607F236F
S315080012C03B6104237B610023BB613B1D1946224811
S315080012D002F068FF0346002B01D001F0E7F8214B26
S315080012E07B600C23BB603B1D19461B4802F05AFF66
S315080012F00346002B01D001F0D9F81B4B7B60122363
S31508001300BB603B1D1946144802F04CFF0346002BF0
S3150800131001D001F0CBF8154B7B601823BB603B1D51
S3150800132019460D4802F03EFF0346002B01D001F096
S31508001330BDF80F4B7B604FF48073BB603B1D1946AD
S31508001340054802F02FFF0346002B01D001F0AEF846
S3150800135000BF2837BD4680BD90020020000004501B
S315080013600004002A0002B0258000501D0800900CD9
S315080013701000C01080B586B000AF3B4600221A6048
S315080013805A609A60DA601A615A614D4B4D4A1A6082
S315080013904B4B4FF480125A60494B00229A60484BD7
S315080013A00022DA60464B01221A61454B04225A6133
S315080013B0434B00221A76424B01225A76404B0622AC
S315080013C0DA613F4B002283F820203D4B00229A62C7
S315080013D03B4B0022DA623A4B012283F83020384B25
S315080013E000225A63364B002283F83820344802F02C
S315080013F0AFFC0346002B01D001F058F8324B3B6096
S3150800140006237B600723BB607F23FB6004233B61C5
S3150800141000237B613B461946294802F0C3FE034672
S31508001420002B01D001F042F8284B3B600C237B606F
S315080014303B461946224802F0B5FE0346002B01D06A
S3150800144001F034F8224B3B6012237B603B46194679
S315080014501B4802F0A7FE0346002B01D001F026F830
S315080014601C4B3B6018237B603B461946144802F028
S3150800147099FE0346002B01D001F018F8164B3B6085
S315080014804FF480737B603B4619460D4802F08AFE8E
S315080014900346002B01D001F009F8104B3B604FF4CE
S315080014A083737B603B461946054802F07BFE03467C
S315080014B0002B01D000F0FAFF00BF1837BD4680BDEB
S315080014C0F402002000010450020030040400600801
S315080014D040002019000180210008302E00106032DB
S315080014E080B58EB000AF786007F1240300221A6039
S315080014F05A609A60DA601A617B681B68614A93428F
S3150800150046D1614B1B6801335F4A13605E4B1B680B
S31508001510012B0BD15D4BDB6C5C4A43F40053D3645F
S315080015205A4BDB6C03F400533B623B6A574BDB6C4C
S31508001530564A43F00403D364544BDB6C03F00403AC
S31508001540FB61FB69514BDB6C504A43F00103D364E2
S315080015504E4BDB6C03F00103BB61BB690C237B625A
S315080015600B23BB620023FB6207F124031946484894
S3150800157004F07EF834237B620B23BB620023FB62F4
S3150800158007F1240319464FF0904004F071F875E00E
S315080015907B681B683F4A934270D13B4B1B680133FB
S315080015A0394A1360384B1B68012B0BD1374BDB6C60
S315080015B0364A43F40053D364344BDB6C03F40053CC
S315080015C07B617B69314BDB6C304A43F00403D3649F
S315080015D02E4BDB6C03F004033B613B692B4BDB6C46
S315080015E02A4A43F00103D364284BDB6C03F001035A
S315080015F0FB60FB6803237B620B23BB620023FB6251
S3150800160007F124031946224804F032F8CA237B62FC
S315080016100B23BB620023FB6207F1240319464FF034
S31508001620904004F025F81C4B1C4A1A601A4B0022FD
S315080016305A60194B00229A60174B0022DA60164B43
S3150800164080221A61144B4FF480725A61124B4FF480
S3150800165080629A61104B2022DA610F4B00221A62CF
S315080016600D4803F08FFD0346002B01D000F01EFF46
S315080016707B68094ADA64084A7B68936200BF383790
S31508001680BD4680BD00000450A003002000100240A3
S315080016900008004800010450580300201C000240BE
S315080016A0B0B500AF2A4BB3F860301846FEF73AFFDC
S315080016B004460D46274B1B899BB21846FEF732FF98
S315080016C01FA3D3E90023FEF797FF02460B462046E1
S315080016D02946FEF7DBFD02460B46104619461AA3B5
S315080016E0D3E90023FFF7B2F802460B46104619461F
S315080016F0FFF75AFA03469AB2154BA3F86020144B23
S31508001700B3F860301A46144B5A60114BB3F8603080
S31508001710B3F5FA6F05D80E4BB3F86030B3F5C86F5A
S3150800172004D20B4B012283F85D2004E0084B00220B
S3150800173083F85D2000BF00BFB0BD00BFAFF30080D7
S315080017407B14AE47E17A843F295C8FC2F528F03FC7
S3150800175008060020C00600206C06002000000000D5
S31508001760B0B500AF284BB3F84C301846FEF7DAFE92
S3150800177004460D46254BDB889BB21846FEF7D2FE7B
S315080017801DA3D3E90023FEF737FF02460B46204682
S315080017902946FEF77BFD02460B461046194618A356
S315080017A0D3E90023FFF752F802460B4610461946BE
S315080017B0FFF7FAF903469AB2134BA3F84C20124BDB
S315080017C0B3F84C3040F29E72934206D80E4BB3F8EB
S315080017D04C3040F20D62934204D80B4B012283F839
S315080017E0492004E0084B002283F8492000BF00BFC7
S315080017F0B0BD00BFAFF300807B14AE47E17A843FEB
S31508001800295C8FC2F528F03F08060020C006002094
S31508001810B0B500AF244B1B8F1846FEF783FE04466F
S315080018200D46224B9B889BB21846FEF77BFE1AA3F1
S31508001830D3E90023FEF7E0FE02460B46204629467A
S31508001840FEF724FD02460B461046194614A3D3E9B3
S315080018500023FEF7FBFF02460B4610461946FFF724
S31508001860A3F903469AB2104B1A870F4B1B8F40F207
S31508001870BC72934204D80C4B1B8FB3F5C86F04D2C5
S31508001880094B012283F8352004E0074B002283F830
S31508001890352000BF00BFB0BD7B14AE47E17A843F58
S315080018A0295C8FC2F528F03F08060020C0060020F4
S315080018B0B0B500AF264B9B8C1846FEF733FE0446A0
S315080018C00D46244B5B889BB21846FEF72BFE1CA3DD
S315080018D0D3E90023FEF790FE02460B46204629462A
S315080018E0FEF7D4FC02460B461046194616A3D3E962
S315080018F00023FEF7ABFF02460B4610461946FFF7D4
S3150800190053F903469AB2124B9A84114B9B8C40F2B8
S315080019109E72934205D80E4B9B8C40F2DB52934243
S3150800192004D80B4B012283F8212004E0084B00223F
S3150800193083F8212000BF00BFB0BD00BFAFF3008011
S315080019407B14AE47E17A843F295C8FC2F528F03FC5
S3150800195008060020C0060020B0B500AF224B1B8A3F
S315080019601846FEF7DFFD04460D46204B1B889BB242
S315080019701846FEF7D7FD18A3D3E90023FEF73CFE69
S3150800198002460B4620462946FEF780FC02460B46D1
S315080019901046194612A3D3E90023FEF757FF02465D
S315080019A00B4610461946FFF7FFF803469AB20E4B48
S315080019B01A820D4B1B8A012B03D80B4B1B8A002B53
S315080019C003D1094B01225A7303E0074B00225A73CD
S315080019D000BF00BFB0BD00BF7B14AE47E17A843FAD
S315080019E0295C8FC2F528F03F08060020C0060020B3
S315080019F080B500AF174B184A1A60164B10225A606A
S31508001A00144B00229A60134B0022DA60114B4FF4F4
S31508001A1040321A610F4B00225A610E4B00221A7689
S31508001A200C4B00225A760B4B00229A76094B002261
S31508001A30DA76084B00221A77064B00225A770548B1
S31508001A4003F092F90346002B01D000F02FFD00BFEA
S31508001A5080BD00BFA40300200064004080B58AB0A2
S31508001A6000AF786007F1140300221A605A609A6082
S31508001A70DA601A617B681B68184A934229D1184BA9
S31508001A809B6D174A43F000739365154B9B6D03F0E6
S31508001A9000733B613B69124BDB6C114A43F001034F
S31508001AA0D3640F4BDB6C03F00103FB60FB684FF458
S31508001AB0C0537B610223BB610023FB6103233B62A6
S31508001AC009237B6207F1140319464FF0904003F08F
S31508001AD0CFFD00BF2837BD4680BD00BF006400406B
S31508001AE00010024080B582B000AF0C4B9B6C0B4ACD
S31508001AF043F001039364094B9B6C03F001037B607D
S31508001B007B68002200210C2003F005FB0C2003F063
S31508001B101EFB00BF0837BD4680BD00BF001002404F
S31508001B2080B58AB000AF07F1140300221A605A6024
S31508001B309A60DA601A61514BDB6C504A43F0040331
S31508001B40D3644E4BDB6C03F004033B613B694B4BA0
S31508001B50DB6C4A4A43F08003D364484BDB6C03F0E2
S31508001B608003FB60FB68454BDB6C444A43F001038A
S31508001B70D364424BDB6C03F00103BB60BB683F4B8D
S31508001B80DB6C3E4A43F00203D3643C4BDB6C03F048
S31508001B9002037B607B6800224FF4C041384803F09B
S31508001BA029FF4FF4C0437B610123BB610023FB611E
S31508001BB000233B6207F114031946314803F058FD28
S31508001BC030237B614FF48813BB610023FB6107F167
S31508001BD0140319462A4803F04BFD4FF207037B61AD
S31508001BE04FF48813BB610023FB6107F11403194600
S31508001BF0244803F03DFD4FF480637B614FF488135E
S31508001C00BB610023FB6107F1140319464FF09040AE
S31508001C1003F02EFD00220121062003F07CFA06209F
S31508001C2003F095FA00220121072003F074FA072031
S31508001C3003F08DFA00220121082003F06CFA08202F
S31508001C4003F085FA002201210A2003F064FA0A202B
S31508001C5003F07DFA00220121172003F05CFA172011
S31508001C6003F075FA00220121282003F054FA2820EF
S31508001C7003F06DFA00BF2837BD4680BD001002404C
S31508001C80000800480004004880B483B000AF03464B
S31508001C90FB80FB88B3F5004F00F01B81B3F5004FBE
S31508001CA000F35C82B3F5804F00F0D980B3F5804F1E
S31508001CB000F35482B3F5005F5DD0B3F5005F00F31F
S31508001CC04D82B3F5805F00F09080B3F5805F00F336
S31508001CD04582202B4ADC002B40F34082013B1F2B18
S31508001CE000F23C8201A252F823F000BF112000083E
S31508001CF0712000085D210008D12000085D21000838
S31508001D005D2100085D2100085D2100085D210008AD
S31508001D105D2100085D2100085D2100085D2100089D
S31508001D205D2100085D210008A91F00085D21000843
S31508001D305D2100085D2100085D2100085D2100087D
S31508001D405D2100085D2100085D2100085D2100086D
S31508001D505D2100085D2100085D2100085D2100085D
S31508001D605D2100085D210008471F0008B3F5806F54
S31508001D7000F0D181F2E1A44B93F85A30012B02D03E
S31508001D80022B15D030E0A04BB3F8583001339AB285
S31508001D909D4BA3F858209C4BB3F8583046F2F452A2
S31508001DA093421ED9984B46F2F452A3F8582018E0ED
S31508001DB0954BB3F85830013B9AB2934BA3F8582089
S31508001DC0914BB3F858304FF67872934204D88E4B3D
S31508001DD0B3F85830632B06D88B4B0022A3F858204B
S31508001DE001E000BFBBE100BFB9E1874B93F85A3069
S31508001DF0012B02D0022B15D030E0834BB3F85830B4
S31508001E0001339AB2804BA3F858207F4BB3F8583069
S31508001E1046F2F45293421ED97B4B46F2F452A3F88B
S31508001E20582018E0784BB3F85830013B9AB2764BF5
S31508001E30A3F85820744BB3F858304FF6787293428B
S31508001E4004D8714BB3F85830632B06D86E4B002272
S31508001E50A3F8582001E000BF81E100BF7FE16A4B8B
S31508001E6093F84630012B02D0022B15D030E0664B92
S31508001E70B3F8443001339AB2634BA3F84420624B5B
S31508001E80B3F8443046F6D03293421ED95E4B46F636
S31508001E90D032A3F8442018E05B4BB3F84430013B3A
S31508001EA09AB2594BA3F84420574BB3F844304FF62F
S31508001EB07872934204D8544BB3F84430632B06D84F
S31508001EC0514B0022A3F8442001E000BF47E100BFC0
S31508001ED045E14D4B93F84630012B02D0022B15D025
S31508001EE030E0494BB3F8443001339AB2464BA3F875
S31508001EF04420454BB3F8443046F6D03293421ED9B7
S31508001F00414B46F6D032A3F8442018E03E4BB3F8CE
S31508001F104430013B9AB23C4BA3F844203A4BB3F801
S31508001F2044304FF67872934204D8374BB3F84430AE
S31508001F30632B06D8344B0022A3F8442001E000BFE7
S31508001F400DE100BF0BE1304B93F83230012B02D084
S31508001F50022B11D027E02C4B1B8E01339AB22A4B49
S31508001F601A86294B1B8E47F21C02934218D9264B18
S31508001F7047F21C021A8613E0234B1B8E013B9AB2CA
S31508001F80214B1A86204B1B8E4FF67872934203D844
S31508001F901D4B1B8E632B05D81B4B00221A8601E0AE
S31508001FA000BFDCE000BFDAE0174B93F83230012BB4
S31508001FB002D0022B11D02AE0134B1B8E01339AB2A2
S31508001FC0114B1A86104B1B8E47F21C02934218D9E6
S31508001FD00D4B47F21C021A8613E00B4B1B8E013B76
S31508001FE09AB2094B1A86084B1B8E4FF678729342A3
S31508001FF003D8054B1B8E632B08D8034B00221A8681
S3150800200004E000BFABE000BF0806002000BFA6E062
S31508002010564B9B7F012B02D0022B11D027E0534B46
S315080020209B8B01339AB2514B9A83504B9B8B46F646
S31508002030A422934218D94D4B46F6A4229A8313E05C
S315080020404A4B9B8B013B9AB2484B9A83474B9B8BD7
S315080020504FF67872934203D8444B9B8B632B05D873
S31508002060424B00229A8301E000BF78E000BF76E089
S315080020703E4B9B7F012B02D0022B11D027E03B4B16
S315080020809B8B01339AB2394B9A83384B9B8B46F616
S31508002090A422934218D9354B46F6A4229A8313E014
S315080020A0324B9B8B013B9AB2304B9A832F4B9B8BBF
S315080020B04FF67872934203D82C4B9B8B632B05D82B
S315080020C02A4B00229A8301E000BF48E000BF46E0A1
S315080020D0264B9B7A012B02D0022B07D01AE0234B02
S315080020E01B8901339AB2214B1A8113E01F4B1B89B6
S315080020F0013B9AB21D4B1A811C4B1B894FF678720D
S31508002100934203D8194B1B89632B02D8174B00221D
S315080021101A8100BF23E0154B9B7A012B02D0022BB4
S3150800212007D01AE0114B1B8901339AB20F4B1A815B
S3150800213013E00E4B1B89013B9AB20C4B1A810B4BD1
S315080021401B894FF67872934203D8084B1B89632B79
S3150800215002D8064B00221A8100BF00E000BF00BF6C
S315080021600C37BD465DF8047B704700BF08060020A3
S3150800217090B585B004AF01F07CFB00F011F900F0D2
S315080021805EF9FFF7CDFCFFF7ADFCFFF73BF8FFF76D
S31508002190F1F8FFF72DFC00F00FFB00F0A7FB00F0AD
S315080021A009FC00F06BFC00F0CDFC00F09DFE00F091
S315080021B071F96C48FFF794F901F08EF906226A491D
S315080021C06A4801F015FF01F011FA01224FF4804127
S315080021D0674803F00FFC6749002001F03FF8FFF756
S315080021E0BBFB644B9B7A002B03D10021614800F0AE
S315080021F027FF6149012001F031F8FFF759FB5D4BD4
S315080022009B7A002B03D101215B4800F019FF5B493B
S31508002210022001F023F8FFF7FBFA564B9B7A002BB6
S3150800222003D10221554800F00BFF5549032001F060
S3150800223015F8FFF795FA4F4B9B7A002B03D103212C
S315080022404F4800F0FDFE4F49042001F007F8FFF75C
S3150800225027FA484B9B7A002B03D10421494800F002
S31508002260EFFE494B1B78002BB5D0474B00221A705E
S31508002270404BB3F8603018463E4BB3F84C301C461A
S315080022803C4B1B8F1A463B4B9B8C1946394B1B8A7A
S31508002290029301910092234602463C493C4808F0C5
S315080022A0F9FC3B48FDF7E4FF03469AB20523384993
S315080022B0384805F04BFE012001F050FB2D4BD3EDBD
S315080022C0157A9FED357A67EE877AFCEEE77A17EE90
S315080022D0903A9BB21846274BD3ED107A9FED2E7A8B
S315080022E067EE877AFCEEE77A17EE903A9BB21C46C1
S315080022F0204BD3ED0B7A9FED287A67EE877AFCEEB2
S31508002300E77A17EE903A9BB21A461A4BD3ED067A3D
S315080023109FED217A67EE877AFCEEE77A17EE903A18
S315080023209BB21946134BD3ED017A9FED1B7A67EEE4
S31508002330877AFCEEE77A17EE903A9BB20293019100
S315080023400092234602461549114808F0A3FC104896
S31508002350FDF78EFF03469AB205230D490D4805F091
S31508002360F5FD38E790020020C0060020F4020020A0
S3150800237000080048080600201C0600203006002039
S3150800238044060020580600208C020020DCD80008ED
S31508002390CC030020800500200000C842FCD80008B5
S315080023A080B596B000AF07F1140344220021184601
S315080023B008F0D3FC3B4600221A605A609A60DA603D
S315080023C01A614FF4007003F053FB0346002B01D04B
S315080023D000F06CF801237B614FF4A023BB61022354
S315080023E0FB6303233B6401237B641423BB64072339
S315080023F0FB6402233B6502237B6507F11403184639
S3150800240003F08CFB0346002B01D000F04FF80F2396
S315080024103B6003237B600023BB600023FB60002333
S315080024203B613B460421184603F054FF0346002B44
S3150800243001D000F03BF800BF5837BD4680BD80B5D7
S31508002440A2B000AF3B4688220021184608F085FC5A
S315080024504FF480433B604FF08053BB6703237B6098
S315080024600123BB600823FB6007233B6102237B61D2
S315080024700823BB614FF08073FB613B46184604F0A6
S315080024804DF90346002B01D000F010F800BF88373D
S31508002490BD4680BD80B500AF00220021342002F081
S315080024A03AFE342002F053FE00BF80BD80B400AF70
S315080024B072B600BFFEE7000080B582B000AF0F4BD2
S315080024C01B6E0E4A43F0010313660C4B1B6E03F09A
S315080024D001037B607B68094B9B6D084A43F0805378
S315080024E09365064B9B6D03F080533B603B68042065
S315080024F002F006FE00BF0837BD4680BD0010024048
S3150800250080B400AFFEE780B400AFFEE780B400AF4A
S31508002510FEE780B400AFFEE780B400AFFEE780B404
S3150800252000AF00BFBD465DF8047B704780B400AFBE
S3150800253000BFBD465DF8047B704780B400AF00BF9E
S31508002540BD465DF8047B704780B500AF01F0E6F93B
S31508002550044B1B889BB201339AB2024B1A8000BF08
S3150800256080BD00BFCC06002080B500AF012003F077
S3150800257059FA00BF80BD80B500AF022003F052FAB9
S3150800258000BF80BD80B500AF042003F04BFA00BF42
S3150800259080BD80B500AF102003F044FA00BF80BDAF
S315080025A080B500AF024802F084FF00BF80BD00BFBF
S315080025B05803002080B500AF202003F033FA00BF8F
S315080025C080BD80B500AF4FF4806003F02BFA4FF45E
S315080025D0805003F027FA4FF4005003F023FA4FF423
S315080025E0804003F01FFA4FF4004003F01BFA00BFC7
S315080025F080BD000080B500AF024805F07DFD00BF34
S3150800260080BD00BF8005002080B400AF01231846B6
S31508002610BD465DF8047B704780B582B000AF786030
S31508002620396008F015FC034616221A604FF0FF338E
S3150800263018460837BD4680BD80B582B000AF7860C1
S315080026404FF0FF317868FFF7E7FFFEE780B586B001
S3150800265000AFF860B9607A6000237B610AE0AFF3E7
S3150800266000800146BB685A1CBA60CAB21A707B69F8
S3150800267001337B617A697B689A42F0DB7B6818468E
S315080026801837BD4680BD80B586B000AFF860B96022
S315080026907A6000237B6109E0BB685A1CBA601B7824
S315080026A01846AFF300807B6901337B617A697B68E2
S315080026B09A42F1DB7B6818461837BD4680BD80B460
S315080026C083B000AF78604FF0FF3318460C37BD462D
S315080026D05DF8047B704780B483B000AF78603960DA
S315080026E03B684FF400525A60002318460C37BD4623
S315080026F05DF8047B704780B483B000AF786001232F
S3150800270018460C37BD465DF8047B704780B485B023
S3150800271000AFF860B9607A60002318461437BD46E2
S315080027205DF8047B7047000080B586B000AF78601E
S31508002730144A154BD31A7B617B693B61134B1B68A3
S31508002740002B02D1114B124A1A60104B1A687B688B
S3150800275013443A699A4207D208F07AFB03460C22D8
S315080027601A604FF0FF3309E0084B1B68FB60074B04
S315080027701A687B681344054A1360FB6818461837BD
S31508002780BD4680BD00800120000400000004002032
S315080027902008002080B400AF064BD3F88830054ADD
S315080027A043F47003C2F8883000BFBD465DF8047B69
S315080027B0704700BF00ED00E080B596B000AF07F1A6
S315080027C04C0300221A605A609A6007F1300300220F
S315080027D01A605A609A60DA601A615A619A613B1DFA
S315080027E02C220021184608F0B8FA3E4B3E4A1A60D9
S315080027F03C4B18225A603B4B00229A60394B6322A5
S31508002800DA60384B00221A61364B00225A61354B82
S3150800281000229A61334804F03DFC0346002B01D0A0
S31508002820FFF744FE0023FB6400233B6500237B651A
S3150800283007F14C0319462B4805F034FA0346002BDA
S3150800284001D0FFF733FE60233B6300237B6300233D
S31508002850BB630023FB6304233B6400237B640023E0
S31508002860BB6407F13003002219461E4804F070FDC8
S315080028700346002B01D0FFF719FE07F130030422A7
S315080028801946184804F064FD0346002B01D0FFF7EB
S315080028900DFE00237B600023BB600023FB60002342
S315080028A03B6100237B614FF40053BB610023FB614E
S315080028B000233B624FF000737B620023BB62002358
S315080028C0FB623B1D1946074805F074FA0346002BC0
S315080028D001D0FFF7EBFD034800F03CFA00BF58377C
S315080028E0BD4680BD04040020002C014080B58AB096
S315080028F000AF07F11C0300221A605A609A603B4633
S3150800290000221A605A609A60DA601A615A619A61FE
S31508002910274B4FF080421A60254B18225A60244BE9
S3150800292000229A60224B6322DA60214B00221A6148
S315080029301F4B00229A611E4804F0ACFB0346002B8D
S3150800294001D0FFF7B3FD0023FB6100237B6207F18B
S315080029501C031946164805F0A5F90346002B01D0B5
S31508002960FFF7A4FD60233B6000237B600023BB6068
S3150800297004233B613B46082219460D4804F0E8FC4F
S315080029800346002B01D0FFF791FD3B460C22194662
S31508002990074804F0DDFC0346002B01D0FFF786FD4F
S315080029A0034800F0D7F900BF2837BD4680BD00BFF1
S315080029B05004002080B58AB000AF07F11C0300223E
S315080029C01A605A609A603B4600221A605A609A60FA
S315080029D0DA601A615A619A61264B274A1A60254BB2
S315080029E018225A60234B00229A60224B6322DA602F
S315080029F0204B00221A611F4B00229A611D4804F0E1
S31508002A0049FB0346002B01D0FFF750FD0023FB616D
S31508002A1000237B6207F11C031946164805F042F9A4
S31508002A200346002B01D0FFF741FD60233B600023DE
S31508002A307B600023BB6004233B613B4600221946AA
S31508002A400C4804F085FC0346002B01D0FFF72EFD49
S31508002A503B4604221946074804F07AFC0346002B35
S31508002A6001D0FFF723FD034800F074F900BF2837AB
S31508002A70BD4680BD9C0400200004004080B58AB095
S31508002A8000AF07F11C0300221A605A609A603B46A1
S31508002A9000221A605A609A60DA601A615A619A616D
S31508002AA0264B274A1A60254B18225A60234B0022C8
S31508002AB09A60224B6322DA60204B00221A611F4B70
S31508002AC000229A611D4804F0E5FA0346002B01D05E
S31508002AD0FFF7ECFC0023FB6100237B6207F11C0374
S31508002AE01946164805F0DEF80346002B01D0FFF715
S31508002AF0DDFC60233B6000237B600023BB6004236E
S31508002B003B613B46002219460C4804F021FC03466B
S31508002B10002B01D0FFF7CAFC3B460422194607489A
S31508002B2004F016FC0346002B01D0FFF7BFFC034850
S31508002B3000F010F900BF2837BD4680BDE804002024
S31508002B400008004080B596B000AF07F14C0300229C
S31508002B501A605A609A6007F1300300221A605A60B8
S31508002B609A60DA601A615A619A613B1D2C2200212B
S31508002B70184608F0F2F83E4B3E4A1A603C4B1822BB
S31508002B805A603B4B00229A60394B6322DA60384B15
S31508002B9000221A61364B00225A61354B00229A618F
S31508002BA0334804F077FA0346002B01D0FFF77EFC82
S31508002BB00023FB6400233B6500237B6507F14C0378
S31508002BC019462B4805F06EF80346002B01D0FFF78F
S31508002BD06DFC60233B6300237B630023BB630023F8
S31508002BE0FB6304233B6400237B640023BB6407F177
S31508002BF03003002219461E4804F0AAFB0346002BA0
S31508002C0001D0FFF753FC07F1300304221946184890
S31508002C1004F09EFB0346002B01D0FFF747FC002378
S31508002C207B600023BB600023FB6000233B6100231D
S31508002C307B614FF40053BB610023FB6100233B62B9
S31508002C404FF000737B620023BB620023FB623B1DCF
S31508002C501946074805F0AEF80346002B01D0FFF7E2
S31508002C6025FC034800F076F800BF5837BD4680BDFE
S31508002C70340500200034014080B489B000AF786084
S31508002C807B681B682E4A93420CD12E4B1B6E2D4A2D
S31508002C9043F4006313662B4B1B6E03F40063FB615E
S31508002CA0FB6946E07B681B68B3F1804F0CD1254B66
S31508002CB09B6D244A43F001039365224B9B6D03F0F9
S31508002CC00103BB61BB6934E07B681B681E4A9342FB
S31508002CD00CD11C4B9B6D1B4A43F002039365194BA1
S31508002CE09B6D03F002037B617B6922E07B681B68AE
S31508002CF0164A93420CD1134B9B6D124A43F00403B8
S31508002D009365104B9B6D03F004033B613B6910E030
S31508002D107B681B680E4A93420BD10A4B1B6E094A05
S31508002D2043F400531366074B1B6E03F40053FB6012
S31508002D30FB6800BF2437BD465DF8047B704700BFBB
S31508002D40002C01400010024000040040000800402A
S31508002D500034014080B58CB000AF786007F11C03E1
S31508002D6000221A605A609A60DA601A617B681B68EA
S31508002D70564A93421ED1564BDB6C554A43F0010323
S31508002D80D364534BDB6C03F00103BB61BB694FF49F
S31508002D904073FB6102233B6200237B620023BB6214
S31508002DA00123FB6207F11C0319464FF0904002F01D
S31508002DB05FFC87E07B681B68B3F1804F1DD1444BED
S31508002DC0DB6C434A43F00203D364414BDB6C03F0EC
S31508002DD002037B617B694FF44063FB6102233B621C
S31508002DE000237B620023BB620123FB6207F11C03FD
S31508002DF01946384802F03CFC64E07B681B68364A92
S31508002E0093421CD1324BDB6C314A43F00203D36444
S31508002E102F4BDB6C03F002033B613B693023FB61FC
S31508002E2002233B6200237B620023BB620223FB6210
S31508002E3007F11C031946274802F01AFC42E07B6892
S31508002E401B68264A93421CD1214BDB6C204A43F06F
S31508002E500203D3641E4BDB6C03F00203FB60FB68C2
S31508002E60C023FB6102233B6200237B620023BB6213
S31508002E700223FB6207F11C031946164802F0F8FB09
S31508002E8020E07B681B68164A93421BD1104BDB6C0B
S31508002E900F4A43F00403D3640D4BDB6C03F00403C1
S31508002EA0BB60BB68C023FB6102233B6200237B62D5
S31508002EB00023BB620323FB6207F11C03194609487A
S31508002EC002F0D6FB00BF3037BD4680BD002C01405E
S31508002ED000100240000400480004004000080040BA
S31508002EE0003401400008004880B500AF144B154A6D
S31508002EF01A60134B4FF4E1325A60114B00229A6064
S31508002F000F4B0022DA600E4B00221A610C4B0C2282
S31508002F105A610B4B00229A61094B0022DA61084B71
S31508002F2000221A62064B00225A62054804F0C0FFC6
S31508002F300346002B01D0FFF7B9FA00BF80BD00BFDA
S31508002F4080050020004C004080B5ACB000AF78602A
S31508002F5007F19C0300221A605A609A60DA601A61C7
S31508002F6007F1140388220021184607F0F6FE7B684D
S31508002F701B68214A93423BD108237B610023BB652A
S31508002F8007F11403184603F0C9FB0346002B01D0CA
S31508002F90FFF78CFA194B9B6D184A43F40023936587
S31508002FA0164B9B6D03F400233B613B69134BDB6CAB
S31508002FB0124A43F00403D364104BDB6C03F004039A
S31508002FC0FB60FB684FF44063C7F89C300223C7F8E0
S31508002FD0A0300023C7F8A4300323C7F8A830082375
S31508002FE0C7F8AC3007F19C031946054802F040FBC8
S31508002FF000BFB037BD4680BD004C004000100240FF
S315080030000008004880B483B000AF78607B684FF052
S315080030100002DA627B684FF000021A637B684FF0A1
S3150800302000029A627B684FF000025A637B680322AB
S3150800303083F8242000BF0C37BD465DF8047B704733
S3150800304080B582B000AF78600B46FB70FB78042B26
S3150800305000F2918001A252F823F000BF71300008F7
S31508003060A7300008D93000080B31000841310008A4
S315080030700421784802F0A6FC0346002B14BF01235E
S315080030800023DAB27B689A744FF480614FF090405F
S3150800309002F098FC0346002B14BF01230023DAB282
S315080030A07B68DA7468E001216A4802F08BFC034603
S315080030B0002B14BF01230023DAB27B689A7402211D
S315080030C0644802F07FFC0346002B14BF012300234B
S315080030D0DAB27B68DA744FE020215F4802F072FCAE
S315080030E00346002B14BF01230023DAB27B689A74C7
S315080030F01021594802F066FC0346002B14BF012331
S315080031000023DAB27B68DA7436E04FF4804151481E
S3150800311002F058FC0346002B14BF01230023DAB241
S315080031207B689A744FF400414A4802F04BFC034608
S31508003130002B14BF01230023DAB27B68DA741BE084
S315080031404FF40051434802F03DFC0346002B14BFE0
S3150800315001230023DAB27B689A744FF480513D4804
S3150800316002F030FC0346002B14BF01230023DAB219
S315080031707B68DA7400E000BF7B689B7CDBB2002BBF
S3150800318008D07B68DB7CDBB2002B03D07B6803228C
S31508003190DA7224E07B689B7CDBB2002B0BD07B6861
S315080031A0DB7CDBB283F00103DBB2002B03D07B6848
S315080031B00422DA7213E07B689B7CDBB283F001039E
S315080031C0DBB2002B08D07B68DB7CDBB2002B03D09C
S315080031D07B680222DA7202E07B680122DA727B6877
S315080031E0DA7A7B681B7B9A422FD07B681B7B042B81
S315080031F00AD17B68DB7A012B06D17B681B890133F0
S315080032009AB27B681A811CE07B681B7B012B0AD16A
S315080032107B68DB7A042B06D17B681B89013B9AB253
S315080032207B681A810DE07B681A897B681B7B99B2DB
S315080032307B68DB7A9BB2CB1A9BB213449AB27B6843
S315080032401A817B68DA7A7B681A7300BF0837BD462D
S3150800325080BD00BF000400480008004880B483B061
S3150800326000AF03463960FB71FB79042B00F2188125
S3150800327001A252F823F000BF8D320008F13200088F
S315080032805D330008C9330008353400083B689B7A6B
S31508003290022B09D13B689A7B854B1B685A63844B82
S315080032A01B6800229A6315E03B689B7A012B09D1BB
S315080032B03B689A7B7E4B1B689A637D4B1B68002292
S315080032C05A6307E07A4B1B6864225A63784B1B687B
S315080032D064229A633B681B8907EE903AF8EE677A90
S315080032E09FED747A67EE877A3B68C3ED017AD8E07A
S315080032F03B689B7A022B09D13B689A7B6E4B1B680D
S315080033005A636D4B1B6800229A6315E03B689B7AEB
S31508003310012B09D13B689A7B674B1B689A63664BFE
S315080033201B6800225A6307E0634B1B6864225A63D2
S31508003330614B1B6864229A633B681B8907EE903AC7
S31508003340B8EE677ADFED5D6AC7EE267A9FED597AA1
S3150800335067EE877A3B68C3ED017AA2E03B689B7A01
S31508003360022B09D13B689A7B554B1B681A64544B50
S315080033701B680022DA6315E03B689B7A012B09D1AA
S315080033803B689A7B4E4B1B68DA634D4B1B680022E1
S315080033901A6407E04A4B1B686422DA63484B1B68C9
S315080033A064221A643B681B8907EE903AB8EE677A7E
S315080033B0DFED446AC7EE267A9FED3E7A67EE877A96
S315080033C03B68C3ED017A6CE03B689B7A022B09D116
S315080033D03B689A7B3C4B1B685A633B4B1B68002235
S315080033E09A6315E03B689B7A012B09D13B689A7B67
S315080033F0354B1B689A63344B1B6800225A6307E0F7
S31508003400314B1B6864225A632F4B1B6864229A63EC
S315080034103B681B8907EE903AB8EE677ADFED2B6AB0
S31508003420C7EE267A9FED237A67EE877A3B68C3ED67
S31508003430017A36E03B689B7A022B09D13B689A7B76
S31508003440234B1B685A63224B1B6800229A6315E0BC
S315080034503B689B7A012B09D13B689A7B1C4B1B68FE
S315080034609A631B4B1B6800225A6307E0184B1B68BC
S3150800347064225A63164B1B6864229A633B681B894D
S3150800348007EE903AB8EE677ADFED126AC7EE267A4B
S315080034909FED087A67EE877A3B68C3ED017A00E00C
S315080034A000BF00BF0C37BD465DF8047B704700BF00
S315080034B09C0400200000C842E80400200048D546C5
S315080034C0500400200038E0463405002000A0D74606
S315080034D00404002000E8CB4680B500AF002135483B
S315080034E003F030FE0421334803F02CFE0021324855
S315080034F003F028FE0421304803F024FE08212F4853
S3150800350003F020FE0C212D4803F01CFE00212C4858
S3150800351003F018FE04212A4803F014FE0021294866
S3150800352003F010FE0421274803F00CFE2648FDF799
S31508003530D7FF2648FDF7D4FF2548FFF705FD0122EA
S315080035402449234804F08CFD2148FFF7FDFC224B53
S3150800355001221A70214B012283F825201F4B0122D4
S3150800356083F826201D4B1E4ADA601C4B1D4A1A6139
S315080035701A4B1D4A1A62194B4FF07E529A61174B25
S315080035804FF07E52DA611548FFF73CFD134B4FF0BA
S315080035907C521A60114B124A5A60104B4FF07E52F9
S315080035A09A600E4B104A5A610C4B012283F824206C
S315080035B000BF80BD9C040020E804002050040020C1
S315080035C0340500200404002090020020F4020020A4
S315080035D0800500208A0200208B0200208406002035
S315080035E000004842000048C20000404080B500AFD5
S315080035F009E0FEF7B1F9FEF75BF9FEF709F9FEF700
S31508003600AFF8FEF74DF8804B1B889BB2B3F5FA7FEF
S31508003610EFD37E4B01229A727C4B3C229A737A4BEB
S3150800362000221A8005E079490020FFF717FEFEF709
S3150800363093F9764B5B7B83F00103DBB2002BF2D167
S31508003640714B1B889BB2272BEDD9704B00229A72BF
S315080036506E4B00229A736D490020FFF7FFFD6B4BF6
S3150800366000225A73694B01221A81684B01229A7704
S31508003670664B3C2283F82220634B00221A8005E021
S3150800368063490120FFF7EAFDFEF712F95F4B93F84D
S31508003690213083F00103DBB2002BF1D15A4B1B8892
S315080036A09BB2312BECD9594B00229A77574B002203
S315080036B083F8222056490120FFF7D0FD534B0022FC
S315080036C083F82120514B46F6A4229A834F4B0122B8
S315080036D083F832204D4B3C2283F836204A4B002291
S315080036E01A8005E04B490220FFF7B8FDFEF790F86F
S315080036F0464B93F8353083F00103DBB2002BF1D14A
S31508003700414B1B889BB2272BECD9404B002283F8F0
S3150800371032203E4B002283F836203E490220FFF72E
S315080037209DFD3A4B002283F83520384B47F21C02A0
S315080037301A86364B012283F84620344B3C2283F8FE
S315080037404A20314B00221A8005E033490320FFF74F
S3150800375085FDFEF705F82D4B93F8493083F00103F4
S31508003760DBB2002BF1D1284B1B889BB2272BECD957
S31508003770264B002283F84620244B002283F84A2051
S3150800378025490320FFF76AFD204B002283F84920CC
S315080037901E4B47F21C02A3F844201C4B012283F857
S315080037A05A201A4B3C2283F85E20174B00221A80B7
S315080037B005E01A490420FFF751FDFDF771FF134B89
S315080037C093F85D3083F00103DBB2002BF1D10E4B89
S315080037D01B889BB2272BECD90C4B002283F85A2066
S315080037E00A4B002283F85E200C490420FFF736FDB9
S315080037F0064B002283F85D20044B47F21C02A3F80F
S31508003800582000BF80BD00BFCC0600200806002057
S315080038101C0600203006002044060020580600201A
S31508003820DFF834D0FEF7B6FF0C480D490D4A0023E1
S3150800383002E0D458C4500433C4188C42F9D30A4A57
S315080038400A4C002301E013600432A242FBD307F0BE
S3150800385005FBFEF78DFCFEE7008001200000002036
S31508003860D40100209CDD0008D40100202008002097
S31508003870FEE780B582B000AF0023FB71032001F09C
S315080038803FFC022000F00EF80346002B02D001236D
S31508003890FB7101E0FEF710FEFB7918460837BD46B6
S315080038A080BD000080B584B000AF78600023FB734C
S315080038B0174B1B78002B23D0164B1A68144B1B7812
S315080038C019464FF47A73B3FBF1F3B2FBF3F31846D8
S315080038D001F04BFC0346002B0FD17B680F2B09D850
S315080038E0002279684FF0FF3001F015FC0A4A7B6820
S315080038F0136007E00123FB7304E00123FB7301E077
S315080039000123FB73FB7B18461037BD4680BD00BFFD
S3150800391008000020000000200400002080B400AF4A
S31508003920064B1B781A46064B1B681344044A136059
S3150800393000BFBD465DF8047B704700BF0800002045
S31508003940D006002080B400AF034B1B681846BD465E
S315080039505DF8047B704700BFD006002080B584B0B0
S3150800396000AF7860FFF7EEFFB8607B68FB60FB6826
S31508003970B3F1FF3F05D00A4B1B781A46FB68134480
S31508003980FB6000BFFFF7DEFF0246BB68D31AFA6882
S315080039909A42F7D800BF00BF1037BD4680BD00BFAA
S315080039A00800002080B483B000AF786039607B6877
S315080039B09B6823F47C123B681A437B689A6000BFB5
S315080039C00C37BD465DF8047B704780B483B000AF02
S315080039D0786039607B689B6823F0E0723B681A431D
S315080039E07B689A6000BF0C37BD465DF8047B70475C
S315080039F080B483B000AF78607B689B6803F0E0739F
S31508003A0018460C37BD465DF8047B704780B487B00E
S31508003A1000AFF860B9607A603B60FB6860331A46AD
S31508003A20BB689B0013447B617B691A68084B13408B
S31508003A307A6802F0F8413A680A43134343F00042B1
S31508003A407B691A6000BF1C37BD465DF8047B70476A
S31508003A5000F0FF0380B485B000AF786039607B68FA
S31508003A6060331A463B689B001344FB60FB681B687F
S31508003A7003F0F84318461437BD465DF8047B7047D3
S31508003A8080B487B000AFF860B9607A60FB686033CD
S31508003A901A46BB689B0013447B617B691B6823F04D
S31508003AA000427B681A437B691A6000BF1C37BD4613
S31508003AB05DF8047B704780B483B000AF78607B689C
S31508003AC0DB6803F44063002B01D1012300E00023E7
S31508003AD018460C37BD465DF8047B704780B487B03E
S31508003AE000AFF860B9607A60FB6830331A46BB6885
S31508003AF01B0A9B0003F00C0313447B617B691A685D
S31508003B00BB6803F01F031F2101FA03F3DB431A40C6
S31508003B107B689B0E03F01F01BB6803F01F0301FAC5
S31508003B2003F31A437B691A6000BF1C37BD465DF86C
S31508003B30047B704780B487B000AFF860B9607A60DC
S31508003B40FB6814331A46BB685B0E9B0003F004033C
S31508003B5013447B617B691A68BB681B0D03F01F035E
S31508003B60072101FA03F3DB431A40BB681B0D03F078
S31508003B701F03796801FA03F31A437B691A6000BFC9
S31508003B801C37BD465DF8047B7047000080B485B0DD
S31508003B9000AFF860B9607A60FB68D3F8B020BB68FC
S31508003BA0C3F31203DB431A407B6803F01803084982
S31508003BB0D940BB680B40C3F312031A43FB68C3F82A
S31508003BC0B02000BF1437BD465DF8047B704700BFC0
S31508003BD0FFFF070080B483B000AF78607B689B68FE
S31508003BE003F01F0318460C37BD465DF8047B704783
S31508003BF080B483B000AF78607B689B6823F020436D
S31508003C0023F03F037A68936000BF0C37BD465DF822
S31508003C10047B704780B483B000AF78607B689B688C
S31508003C2003F00053B3F1005F01D1012300E0002344
S31508003C3018460C37BD465DF8047B704780B483B0E0
S31508003C4000AF78607B689B6823F0104323F03F033E
S31508003C5043F080527B689A6000BF0C37BD465DF81A
S31508003C60047B704780B483B000AF78607B689B683C
S31508003C7003F08053B3F1805F01D1012300E00023F4
S31508003C8018460C37BD465DF8047B704780B483B090
S31508003C9000AF78607B689B6823F0004323F03F03FE
S31508003CA043F001027B689A6000BF0C37BD465DF899
S31508003CB0047B704780B483B000AF78607B689B68EC
S31508003CC003F00103012B01D1012300E0002318466C
S31508003CD00C37BD465DF8047B704780B483B000AFEF
S31508003CE078607B689B6823F0004323F03F0343F02A
S31508003CF004027B689A6000BF0C37BD465DF8047BFA
S31508003D00704780B483B000AF78607B689B6803F027
S31508003D100403042B01D1012300E0002318460C37C5
S31508003D20BD465DF8047B704780B483B000AF786009
S31508003D307B689B6803F00803082B01D1012300E088
S31508003D40002318460C37BD465DF8047B7047000013
S31508003D5090B589B000AF78600023FB770023FB603D
S31508003D607B68002B01D1012330E17B681B69002B9E
S31508003D707B685B6D002B09D17868FDF7B1FB7B6822
S31508003D8000229A657B68002283F850207B681B68AE
S31508003D901846FFF73FFF0346002B04D07B681B68D5
S31508003DA01846FFF725FF7B681B681846FFF75AFF7A
S31508003DB00346002B15D17B681B681846FFF73EFFA4
S31508003DC0844B1B689B09844AA2FB03239B09013386
S31508003DD05B00FB6002E0FB68013BFB60FB68002BB5
S31508003DE0F9D17B681B681846FFF73CFF0346002B92
S31508003DF00DD17B685B6D43F010027B685A657B6862
S31508003E009B6D43F001027B689A650123FB777B680B
S31508003E101B681846FFF775FF78617B685B6D03F0D2
S31508003E201003002B40F0C9807B69002B40F0C58049
S31508003E307B685B6D23F4817343F002027B685A65E5
S31508003E407B681B681846FFF735FF0346002B15D11C
S31508003E506248FFF72FFF04466148FFF72BFF03462A
S31508003E601C436048FFF726FF03462343002B05D172
S31508003E707B685B6819465C48FFF794FD7B685B7E48
S31508003E805A037B685B6B1A437B68DB681A437B685B
S31508003E909B681A437B6893F820301B041343BB6165
S31508003EA07B6893F82030012B06D17B685B6A013B5F
S31508003EB05B04BA691343BB617B689B6A002B09D014
S31508003EC07B689B6A03F470727B68DB6A1343BA6982
S31508003ED01343BB617B681B68DA68444B13407A68F6
S31508003EE01268B9690B43D3607B681B681846FFF7ED
S31508003EF01BFF38617B69002B3DD13B69002B3AD10A
S31508003F007B681B7E9A037B6893F830305B0013430B
S31508003F10BB617B681B68DB6823F4804323F00203DC
S31508003F207A681268B9690B43D3607B6893F83830AE
S31508003F30012B18D17B681B681B6923F4FF6323F0E8
S31508003F4004037A68D16B7A68126C11437A68526CEA
S31508003F5011437A68926C0A431A437B681B6842F0DD
S31508003F6001021A6107E07B681B681A697B681B688F
S31508003F7022F001021A617B681B69012B0CD17B6850
S31508003F801B681B6B23F00F017B68DB695A1E7B6875
S31508003F901B680A431A6307E07B681B681A6B7B6811
S31508003FA01B6822F00F021A637B685B6D23F003031C
S31508003FB043F001027B685A6507E07B685B6D43F056
S31508003FC010027B685A650123FB77FB7F1846243766
S31508003FD0BD4690BD00000020632D3E05000004503C
S31508003FE000010450000204500003045007C0F0FF0B
S31508003FF080B586B000AFF860B9607A605348FFF7BD
S31508004000E9FD3861FB681B681846FFF77AFE034628
S31508004010002B40F09380FB6893F85030012B01D1B8
S3150800402002238EE0FB68012283F85020FB681B6898
S31508004030474A934208D03B69002B05D03B69052BBC
S3150800404002D03B69092B72D1F86800F09DFC034643
S31508004050FB75FB7D002B65D1FB685B6D23F47063F4
S3150800406023F0010343F48072FB685A65FB681B68FA
S31508004070384A934202D0FB681B6800E0364BFA6860
S315080040801268934202D03B69002B05D1FB685B6D31
S3150800409023F48012FB685A65FB685B6D03F4805352
S315080040A0002B06D0FB689B6D23F00602FB689A6519
S315080040B002E0FB6800229A65FB68DB6C274ADA6235
S315080040C0FB68DB6C264A1A63FB68DB6C254A5A6375
S315080040D0FB681B681C221A60FB68002283F85020C4
S315080040E0FB681B685A68FB681B6842F010025A6036
S315080040F0FB681B68DA68FB681B6842F00102DA6035
S31508004100FB68D86CFB681B6840331946BA687B683D
S3150800411001F0F0F80346FB75FB681B681846FFF7C5
S31508004120DCFD0DE0FB68002283F8502008E001233F
S31508004130FB75FB68002283F8502001E00223FB751B
S31508004140FB7D18461837BD4680BD00BF00030450E6
S31508004150000204500001045000000450954A00086B
S315080041606D4B0008894B000880B483B000AF7860B7
S3150800417000BF0C37BD465DF8047B704780B483B03A
S3150800418000AF786000BF0C37BD465DF8047B70470A
S3150800419080B483B000AF786000BF0C37BD465DF8C9
S315080041A0047B704780B5B6B000AF786039600023ED
S315080041B087F8D7300023BB607B6893F85030012B13
S315080041C001D10223C9E37B68012283F850207B686A
S315080041D01B681846FFF795FD0346002B40F0AA8397
S315080041E03B685B68C7F8D0303B685B68052B24D80A
S315080041F03B685B68023B032B1BD801A252F823F0ED
S315080042001142000819420008214200082942000804
S315080042100C23C7F8D03010E01223C7F8D0300CE0D2
S315080042201823C7F8D03008E04FF48073C7F8D030A9
S3150800423003E00623C7F8D03000BF7B6818683B68E0
S315080042401B681A46D7F8D010FFF748FC7B681B682E
S315080042501846FFF756FDC7F8CC007B681B6818465A
S31508004260FFF762FDC7F8C800D7F8CC30002B40F03E
S31508004270A481D7F8C830002B40F09F817B68186866
S315080042803B6819683B689B681A46FFF753FC3B680E
S315080042905A697B681B68DB68DB0803F003035B006D
S315080042A002FA03F3C7F8C4303B681B69042B0AD02B
S315080042B07B6818683B6819693B681A68D7F8C43080
S315080042C0FFF7A4FB79E17B681B6800211846FFF716
S315080042D0C1FB0346C3F31203002B0AD17B681B6894
S315080042E000211846FFF7B6FB03469B0E03F01F0294
S315080042F01EE07B681B6800211846FFF7ABFB0346E8
S31508004300C7F8B830D7F8B83093FAA3F3C7F8B4307B
S31508004310D7F8B430C7F8BC30D7F8BC30002B01D179
S31508004320202304E0D7F8BC30B3FA83F3DBB21A468D
S315080043303B681B68C3F31203002B05D13B681B6857
S315080043409B0E03F01F0318E03B681B68C7F8AC30E8
S31508004350D7F8AC3093FAA3F3C7F8A830D7F8A83043
S31508004360C7F8B030D7F8B030002B01D1202304E0CD
S31508004370D7F8B030B3FA83F3DBB29A4206D17B683A
S315080043801B68002200211846FFF77AFB7B681B682A
S3150800439001211846FFF75EFB0346C3F31203002B01
S315080043A00AD17B681B6801211846FFF753FB0346B1
S315080043B09B0E03F01F021EE07B681B68012118464E
S315080043C0FFF748FB0346C7F8A030D7F8A03093FAA2
S315080043D0A3F3C7F89C30D7F89C30C7F8A430D7F8B1
S315080043E0A430002B01D1202304E0D7F8A430B3FA77
S315080043F083F3DBB21A463B681B68C3F31203002B30
S3150800440005D13B681B689B0E03F01F0318E03B6849
S315080044101B68C7F89430D7F8943093FAA3F3C7F813
S315080044209030D7F89030C7F89830D7F89830002BE6
S3150800443001D1202304E0D7F89830B3FA83F3DBB22E
S315080044409A4206D17B681B68002201211846FFF7AD
S3150800445017FB7B681B6802211846FFF7FBFA034621
S31508004460C3F31203002B0AD17B681B680221184686
S31508004470FFF7F0FA03469B0E03F01F021EE07B6867
S315080044801B6802211846FFF7E5FA0346C7F8883085
S31508004490D7F8883093FAA3F3C7F88430D7F884306E
S315080044A0C7F88C30D7F88C30002B01D1202304E0D4
S315080044B0D7F88C30B3FA83F3DBB21A463B681B682D
S315080044C0C3F31203002B05D13B681B689B0E03F050
S315080044D01F0314E03B681B68FB67FB6F93FAA3F3A3
S315080044E0BB67BB6FC7F88030D7F88030002B01D187
S315080044F0202304E0D7F88030B3FA83F3DBB29A427C
S3150800450006D17B681B68002202211846FFF7B8FA15
S315080045107B681B6803211846FFF79CFA0346C3F31A
S315080045201203002B0AD17B681B6803211846FFF784
S3150800453091FA03469B0E03F01F0217E07B681B687F
S3150800454003211846FFF786FA03463B673B6F93FA43
S31508004550A3F3FB66FB6E7B677B6F002B01D12023E1
S3150800456003E07B6FB3FA83F3DBB21A463B681B683A
S31508004570C3F31203002B05D13B681B689B0E03F09F
S315080045801F0311E03B681B687B667B6E93FAA3F3F7
S315080045903B663B6EBB66BB6E002B01D1202303E056
S315080045A0BB6EB3FA83F3DBB29A4206D17B681B680B
S315080045B0002203211846FFF763FA7B681B68184632
S315080045C0FFF778FB0346002B40F040817B681868AC
S315080045D03B6819683B68DB681A46FFF7D7FA3B68F9
S315080045E0DB688F4A934240F031817B6818683B68E4
S315080045F01B68C3F31203002B0BD13B681B689B0E89
S31508004600013303F01F03092B94BF01230023DBB2F8
S3150800461019E03B681B68BB65BB6D93FAA3F37B6522
S315080046207B6DFB65FB6D002B01D1202303E0FB6D41
S31508004630B3FA83F3DBB2013303F01F03092B94BFEC
S3150800464001230023DBB2002B79D03B681B68C3F338
S315080046501203002B07D13B681B689B0E01339B0690
S3150800466003F0F84215E03B681B68FB64FB6C93FAA1
S31508004670A3F3BB64BB6C3B653B6D002B01D12023C8
S3150800468003E03B6DB3FA83F3DBB201339B0603F019
S31508004690F8423B681B68C3F31203002B09D13B6839
S315080046A01B689B0E013303F01F03012101FA03F374
S315080046B017E03B681B683B643B6C93FAA3F3FB6308
S315080046C0FB6B7B647B6C002B01D1202303E07B6CA6
S315080046D0B3FA83F3DBB2013303F01F03012101FAB6
S315080046E003F342EA03013B681B68C3F31203002B7A
S315080046F00AD13B681B689B0E013303F01F02134661
S315080047005B0013441B0518E03B681B687B637B6BE7
S3150800471093FAA3F33B633B6BBB63BB6B002B01D1E3
S31508004720202303E0BB6BB3FA83F3DBB2013303F058
S315080047301F0213465B0013441B050B4381E03B68CD
S315080047401B68C3F31203002B07D13B681B689B0E3B
S3150800475001339B0603F0F84215E03B681B68BB6211
S31508004760BB6A93FAA3F37B627B6AFB62FB6A002B44
S3150800477001D1202303E0FB6AB3FA83F3DBB20133EA
S315080047809B0603F0F8423B681B68C3F31203002B31
S3150800479009D13B681B689B0E013303F01F030121F7
S315080047A001FA03F317E03B681B68FB61FB6993FAA0
S315080047B0A3F3BB61BB693B623B6A002B01D1202393
S315080047C003E03B6AB3FA83F3DBB2013303F01F035A
S315080047D0012101FA03F342EA03013B681B68C3F3AC
S315080047E01203002B0DD13B681B689B0E013303F0A7
S315080047F01F0213465B0013441E3B1B0543F0007360
S315080048001EE03B681B683B613B6993FAA3F3FB60B8
S31508004810FB687B617B69002B04D1202306E000BF7F
S3150800482000007F407B69B3FA83F3DBB2013303F000
S315080048301F0213465B0013441E3B1B0543F000731F
S315080048400B433A6892681946FFF774F93B681A6889
S31508004850444B1340002B7AD04348FFF7C9F8C7F8F2
S31508004860C0003B681B68414A93422CD1D7F8C03038
S3150800487003F40003002B26D17B681B683C4A93424D
S3150800488004D07B681B683B4A93425DD1D7F8C03099
S3150800489043F4000319463448FFF797F8364B1B686C
S315080048A09B09364AA2FB03239B095A1C13465B0045
S315080048B013449B00BB6002E0BB68013BBB60BB685E
S315080048C0002BF9D140E03B681B682D4A934218D16A
S315080048D0D7F8C03003F08073002B12D17B681B68B1
S315080048E0234A934204D07B681B68224A93422DD1FF
S315080048F0D7F8C03043F0807319461B48FFF765F8B0
S3150800490024E03B681B681F4A934220D1D7F8C03081
S3150800491003F48003002B1AD17B681B68144A934260
S3150800492015D1D7F8C03043F4800319460E48FFF76F
S315080049304CF80CE07B685B6D43F020027B685A6597
S31508004940012387F8D73002E000BF00E000BF7B688C
S31508004950002283F8502097F8D7301846D837BD4636
S3150800496080BD00BF0000088000030450000052C745
S31508004970000004500002045000000020632D3E058C
S31508004980000084CB0100008080B584B000AF786059
S315080049900023BB607B681B681846FFF78BF9034644
S315080049A0002B69D17B681B689A68364B1340002B2D
S315080049B00DD07B685B6D43F010027B685A657B6897
S315080049C09B6D43F001027B689A65012355E07B687D
S315080049D01B681846FFF75AF92B48FFF709F80346EC
S315080049E003F40003002B13D0284B1B689B09284AA5
S315080049F0A2FB03239B095A1C13465B0013449B0026
S31508004A00BB6002E0BB68013BBB60BB68002BF9D109
S31508004A10FEF798FFF86028E07B681B681846FFF7E2
S31508004A2049F90346002B04D17B681B681846FFF733
S31508004A302DF9FEF787FF0246FB68D31A022B14D915
S31508004A407B681B681B6803F00103012B0DD07B688C
S31508004A505B6D43F010027B685A657B689B6D43F07B
S31508004A6001027B689A65012307E07B681B681B685F
S31508004A7003F00103012BCFD1002318461037BD469A
S31508004A8080BD00BF3F0000800003045000000020E6
S31508004A90632D3E0580B584B000AF78607B689B6A5D
S31508004AA0FB60FB685B6D03F05003002B4BD1FB6882
S31508004AB05B6D43F40072FB685A65FB681B681B68EC
S31508004AC003F00803002B21D0FB681B681846FEF785
S31508004AD0F2FF0346002B32D0FB681B68DB6803F441
S31508004AE00053002B2BD1FB685B6D23F48072FB68A7
S31508004AF05A65FB685B6D03F48053002B1FD1FB6876
S31508004B005B6D43F00102FB685A6518E0FB681B6899
S31508004B10DB6803F00203002B11D1FB685B6D23F4FD
S31508004B208072FB685A65FB685B6D03F48053002B43
S31508004B3005D1FB685B6D43F00102FB685A65F868AE
S31508004B40FFF712FB0EE0FB685B6D03F01003002B0A
S31508004B5003D0F868FFF71CFB04E0FB68DB6C5B6BB3
S31508004B607868984700BF1037BD4680BD80B584B0C9
S31508004B7000AF78607B689B6AFB60F868FFF7FEFA0F
S31508004B8000BF1037BD4680BD80B584B000AF7860E1
S31508004B907B689B6AFB60FB685B6D43F04002FB68C1
S31508004BA05A65FB689B6D43F00402FB689A65F868D2
S31508004BB0FFF7EEFA00BF1037BD4680BD80B483B05C
S31508004BC000AF78607B689B6803F00103012B01D175
S31508004BD0012300E0002318460C37BD465DF8047B28
S31508004BE0704780B483B000AF78607B689B6803F039
S31508004BF00403042B01D1012300E0002318460C37D7
S31508004C00BD465DF8047B704790B59FB000AF7860ED
S31508004C103960002387F877307B6893F85030012B8A
S31508004C2001D1022393E07B68012283F850200023F8
S31508004C30FB6500233B667B681B68474A934202D1A3
S31508004C40464BBB6001E00023BB60BB68002B0BD161
S31508004C507B685B6D43F020027B685A657B6800229F
S31508004C6083F85020012372E0BB681846FFF7B9FFA6
S31508004C7038677B681B681846FFF7B3FF0346002BA7
S31508004C8054D13B6F002B51D1354BFB663B681B68F3
S31508004C90002B2CD0FB6E9B6823F460423B68596856
S31508004CA07B6893F830305B030B431A43FB6E9A60BC
S31508004CB02948FFF783FF04462848FFF77FFF034686
S31508004CC01C432848FFF77AFF03462343002B37D1B6
S31508004CD0FB6E9B6823F4716323F00F033A6811682F
S31508004CE03A6892680A431A43FB6E9A6028E0FB6E9C
S31508004CF09B6823F46042FB6E9A601748FFF75EFFD5
S31508004D0004461648FFF75AFF03461C431548FFF7A3
S31508004D1055FF03462343002B12D1FB6E9B6823F4F1
S31508004D20716323F00F03FA6E936009E07B685B6D8D
S31508004D3043F020027B685A65012387F8773000E044
S31508004D4000BF7B68002283F8502097F87730184612
S31508004D507C37BD4690BD00BF0000045000010450DA
S31508004D60000304500002045080B584B000AF786098
S31508004D707B68002B01D10123EDE07B6893F8203096
S31508004D80DBB2002B02D17868FCF768FE7B681B68EB
S31508004D901A687B681B6842F001021A60FEF7D2FDAA
S31508004DA0F86012E0FEF7CEFD0246FB68D31A0A2B1E
S31508004DB00BD97B685B6A43F400327B685A627B686E
S31508004DC0052283F820200123C5E07B681B685B6801
S31508004DD003F00103002BE5D07B681B681A687B6823
S31508004DE01B6822F002021A60FEF7ACFDF86012E0BA
S31508004DF0FEF7A8FD0246FB68D31A0A2B0BD97B6877
S31508004E005B6A43F400327B685A627B68052283F842
S31508004E10202001239FE07B681B685B6803F0020380
S31508004E20002BE5D17B681B7E012B08D17B681B68AC
S31508004E301A687B681B6842F080021A6007E07B6884
S31508004E401B681A687B681B6822F080021A607B68F8
S31508004E505B7E012B08D17B681B681A687B681B6818
S31508004E6042F040021A6007E07B681B681A687B6894
S31508004E701B6822F040021A607B689B7E012B08D1D2
S31508004E807B681B681A687B681B6842F020021A60F8
S31508004E9007E07B681B681A687B681B6822F020029B
S31508004EA01A607B68DB7E012B08D17B681B681A6851
S31508004EB07B681B6822F010021A6007E07B681B6893
S31508004EC01A687B681B6842F010021A607B681B7FB1
S31508004ED0012B08D17B681B681A687B681B6842F03F
S31508004EE008021A6007E07B681B681A687B681B68FB
S31508004EF022F008021A607B685B7F012B08D17B6869
S31508004F001B681A687B681B6842F004021A6007E08F
S31508004F107B681B681A687B681B6822F004021A60A3
S31508004F207B689A687B68DB681A437B681B691A4347
S31508004F307B685B6942EA03017B685B685A1E7B688B
S31508004F401B680A43DA617B6800225A627B68012281
S31508004F5083F82020002318461037BD4680BD000080
S31508004F6080B485B000AF78607B6803F00703FB6008
S31508004F700C4BDB68BB60BA684FF6FF031340BB6097
S31508004F80FB681A02BB68134343F0BF6343F400335C
S31508004F90BB60044ABB68D36000BF1437BD465DF8E2
S31508004FA0047B704700ED00E080B400AF044BDB687B
S31508004FB01B0A03F007031846BD465DF8047B7047D5
S31508004FC000ED00E080B483B000AF0346FB7197F9AB
S31508004FD00730002B0BDBFB7903F01F02074997F913
S31508004FE007305B09012000FA02F241F8232000BFCE
S31508004FF00C37BD465DF8047B704700BF00E100E052
S3150800500080B483B000AF03463960FB7197F9073067
S31508005010002B0ADB3B68DAB20C4997F90730120114
S31508005020D2B20B4483F800230AE03B68DAB2084997
S31508005030FB7903F00F03043B1201D2B20B441A7634
S3150800504000BF0C37BD465DF8047B704700E100E001
S3150800505000ED00E080B489B000AFF860B9607A600E
S31508005060FB6803F00703FB61FB69C3F10703042B25
S3150800507028BF0423BB61FB690433062B02D9FB69ED
S31508005080033B00E000237B614FF0FF32BB6902FA65
S3150800509003F3DA43BB681A407B699A404FF0FF3145
S315080050A07B6901FA03F3D9437B680B40134318461F
S315080050B02437BD465DF8047B7047000080B582B092
S315080050C000AF78607B68013BB3F1807F01D3012391
S315080050D00FE00A4A7B68013B53600F214FF0FF300F
S315080050E0FFF78EFF054B00229A60044B07221A60D1
S315080050F0002318460837BD4680BD00BF10E000E013
S3150800510080B582B000AF78607868FFF729FF00BFE6
S315080051100837BD4680BD80B586B000AF0346B96086
S315080051207A60FB7300237B61FFF73EFF78617A683C
S31508005130B9687869FFF78EFF024697F90F3011466E
S315080051401846FFF75DFF00BF1837BD4680BD80B51E
S3150800515082B000AF0346FB7197F907301846FFF790
S3150800516031FF00BF0837BD4680BD80B582B000AFAD
S3150800517078607868FFF7A2FF034618460837BD46E9
S3150800518080BD000080B485B000AF78607B68002BD6
S3150800519001D1012398E07B681B681A464D4B9A4259
S315080051A00FD87B681B681A464B4B13444B4AA2FB25
S315080051B003231B099A007B685A647B68484A1A6469
S315080051C00EE07B681B681A46464B1344434AA2FB0B
S315080051D003231B099A007B685A647B68424A1A644F
S315080051E07B68022283F825207B681B681B68FB60A6
S315080051F0FB6823F4FF4323F07003FB607B689A681F
S315080052007B68DB681A437B681B691A437B685B69A2
S315080052101A437B689B691A437B68DB691A437B6878
S315080052201B6A1343FA681343FB607B681B68FA68BA
S315080052301A607B689B68B3F5804F39D07B681B6C16
S31508005240274A93421AD1294B1A687B685B6C03F08C
S315080052501C030F2101FA03F3DB43244913400B60B7
S31508005260224B1A687B6859687B685B6C03F01C03E1
S3150800527001FA03F31D4913430B6019E01C4B1A6826
S315080052807B685B6C03F01C030F2101FA03F3DB4315
S31508005290174913400B60164B1A687B6859687B6878
S315080052A05B6C03F01C0301FA03F3114913430B600B
S315080052B07B680022DA637B68012283F825207B68F5
S315080052C0002283F82420002318461437BD465DF8CB
S315080052D0047B704707040240F8FFFDBFCDCCCCCC59
S315080052E000000240F8FBFDBF00040240A80002408F
S315080052F0A804024080B586B000AFF860B9607A604D
S315080053003B600023FB75FB6893F82430012B01D121
S3150800531002234BE0FB68012283F82420FB6893F8FC
S315080053202530DBB2012B3AD1FB68022283F825200F
S31508005330FB680022DA63FB681B681A68FB681B684F
S3150800534022F001021A603B687A68B968F86800F0CA
S315080053505FF9FB681B6B002B08D0FB681B681A6893
S31508005360FB681B6842F00E021A600FE0FB681B68B8
S315080053701A68FB681B6822F004021A60FB681B683F
S315080053801A68FB681B6842F00A021A60FB681B6809
S315080053901A68FB681B6842F001021A6005E0FB68A0
S315080053A0002283F824200223FB75FB7D1846183754
S315080053B0BD4680BD80B485B000AF78600023FB731E
S315080053C07B6893F82530DBB2022B08D07B68042271
S315080053D0DA637B68002283F82420012322E07B68B5
S315080053E01B681A687B681B6822F00E021A607B68C5
S315080053F01B681A687B681B6822F001021A607B68C2
S315080054005B6C03F01C027B681B6C012101FA02F23B
S315080054105A607B68012283F825207B68002283F87E
S315080054202420FB7B18461437BD465DF8047B70477D
S3150800543080B584B000AF78600023FB737B6893F86F
S315080054402530DBB2022B05D07B680422DA63012300
S31508005450FB7329E07B681B681A687B681B6822F067
S315080054600E021A607B681B681A687B681B6822F044
S3150800547001021A607B685B6C03F01C027B681B6C7C
S31508005480012101FA02F25A607B68012283F825207D
S315080054907B68002283F824207B689B6B002B03D053
S315080054A07B689B6B78689847FB7B18461037BD4628
S315080054B080BD80B584B000AF78607B681B6C1B68C4
S315080054C0FB607B681B681B68BB607B685B6C03F0D2
S315080054D01C0304229A40FB681340002B26D0BB68A5
S315080054E003F00403002B21D07B681B681B6803F0BC
S315080054F02003002B07D17B681B681A687B681B682A
S3150800550022F004021A607B685B6C03F01C027B685D
