S011000048616E645F4C6D63752E73726563A8
S315080000000080012019450008F1270008F927000893
S3150800001011280008172800081D28000800000000FD
S31508000020000000000000000000000000232800086F
S3150800003031280008000000003F2800084D28000865
S3150800004069450008694500086945000869450008CA
S315080000506945000869450008F1280008FF280008D6
S315080000600D290008694500081B290008694500088C
S3150800007029290008694500086945000869450008F6
S31508000080694500086945000869450008694500088A
S315080000906945000869450008694500083D290008C2
S315080000A0694500086945000869450008694500086A
S315080000B0694500086945000869450008694500085A
S315080000C0694500086945000869450008694500084A
S315080000D0694500086945000869450008694500083A
S315080000E04B29000869450008694500086945000864
S315080000F0694500086945000869450008694500081A
S315080001006945000869450008694500086945000809
S315080001107D290008694500086945000891290008F5
S3150800012069450008694500086945000869450008E9
S3150800013069450008694500086945000869450008D9
S3150800014069450008694500086945000869450008C9
S3150800015069450008694500086945000869450008B9
S3150800016069450008694500086945000869450008A9
S31508000170694500086945000869450008000000004F
S30D080001806945000869450008FD
S3150800019010B5054C237833B9044B13B10448AFF3B3
S315080001A000800123237010BDD80100200000000044
S315080001B008EA000808B5034B1BB103490348AFF327
S315080001C0008008BD00000000DC01002008EA0008E5
S315080001D001F0FF01102A2BDB10F0070F08D010F8EA
S315080001E0013B013A8B422DD010F0070F42B3F6D1EE
S315080001F0F0B441EA012141EA014122F007047FF007
S3150800020000070023F0E80256083C85EA010586EA5D
S31508000210010685FA47F5A3FA87F586FA47F6A5FA99
S3150800022087F68EB9EED1F0BC01F0FF0102F00702A5
S3150800023032B110F8013B013A83EA010313B1F8D150
S315080002400020704701387047002D06BF3546033831
S31508000250073815F0010F07D1013015F4807F02BF6A
S31508000260013015F4C03F0130F0BC0138704700BFBB
S31508000270034613F8012B002AFBD1181A01387047D8
S3150800028081F0004102E000BF83F0004330B54FEA39
S3150800029041044FEA430594EA050F08BF90EA020FA6
S315080002A01FBF54EA000C55EA020C7FEA645C7FEA39
S315080002B0655C00F0E2804FEA5454D4EB5555B8BF5C
S315080002C06D420CDD2C4480EA020281EA030382EACD
S315080002D0000083EA010180EA020281EA0303362D5F
S315080002E088BF30BD11F0004F4FEA01314FF4801C32
S315080002F04CEA113102D0404261EB410113F0004F44
S315080003004FEA03334CEA133302D0524263EB4303FA
S3150800031094EA050F00F0A780A4F10104D5F1200E98
S315080003200DDB02FA0EFC22FA05F2801841F10001F3
S3150800033003FA0EF2801843FA05F359410EE0A5F1C7
S3150800034020050EF1200E012A03FA0EFC28BF4CF0F8
S31508000350020C43FA05F3C01851EBE37101F00045AE
S3150800036007D54FF0000EDCF1000C7EEB00006EEBBB
S315080003700101B1F5801F1BD3B1F5001F0CD3490845
S315080003805FEA30004FEA3C0C04F101044FEA44529C
S3150800039012F5800F80F09A80BCF1004F08BF5FEA23
S315080003A0500C50F1000041EB045141EA050130BD03
S315080003B05FEA4C0C404141EB0101013C28BFB1F515
S315080003C0801FE9D291F0000F04BF01460020B1FA60
S315080003D081F308BF2033A3F10B03B3F120020CDA33
S315080003E00C3208DD02F1140CC2F10C0201FA0CF011
S315080003F021FA02F10CE002F11402D8BFC2F1200C76
S3150800040001FA02F120FA0CFCDCBF41EA0C0190402B
S31508000410E41AA2BF01EB0451294330BD6FEA040474
S315080004201F3C1CDA0C340EDC04F11404C4F120025F
S3150800043020FA04F001FA02F340EA030021FA04F371
S3150800044045EA030130BDC4F10C04C4F1200220FAC8
S3150800045002F001FA04F340EA0300294630BD21FA06
S3150800046004F0294630BD94F0000F83F4801306BFCC
S3150800047081F480110134013D4EE77FEA645C18BFC0
S315080004807FEA655C29D094EA050F08BF90EA020F57
S3150800049005D054EA000C04BF1946104630BD91EA4F
S315080004A0030F1EBF0021002030BD5FEA545C05D152
S315080004B04000494128BF41F0004130BD14F5800491
S315080004C03CBF01F5801130BD01F0004545F0FE4105
S315080004D041F470014FF0000030BD7FEA645C1ABF3A
S315080004E0194610467FEA655C1CBF0B46024650EA71
S315080004F0013406BF52EA033591EA030F41F400219D
S3150800050030BD00BF90F0000F04BF0021704730B522
S315080005104FF4806404F132044FF000054FF00001F7
S3150800052050E700BF90F0000F04BF0021704730B5B8
S315080005304FF4806404F1320410F0004548BF40428D
S315080005404FF000013EE700BF42004FEAE2014FEAE2
S3150800055031014FEA02701FBF12F07F4393F07F4FBD
S3150800056081F06051704732F07F4208BF704793F0C0
S315080005707F4F04BF41F40021704730B54FF46074D3
S3150800058001F0004521F000411CE700BF50EA0102D6
S3150800059008BF704730B54FF000050AE050EA01027F
S315080005A008BF704730B511F0004502D5404261EBEF
S315080005B041014FF4806404F132045FEA915C3FF430
S315080005C0D8AE4FF003025FEADC0C18BF03325FEACD
S315080005D0DC0C18BF033202EBDC02C2F1200300FA7E
S315080005E003FC20FA02F001FA03FE40EA0E0021FAA3
S315080005F002F11444BDE600BF70B54FF0FF0C4CF491
S31508000600E06C1CEA11541DBF1CEA135594EA0C0F42
S3150800061095EA0C0F00F0DEF82C4481EA030621EA7D
S315080006204C5123EA4C5350EA013518BF52EA0335B8
S3150800063041F4801143F4801338D0A0FB02CE4FF06A
S315080006400005E1FB02E506F00042E0FB03E54FF09A
S315080006500006E1FB03569CF0000F18BF4EF0010E92
S31508000660A4F1FF04B6F5007F64F5407404D25FEA8E
S315080006704E0E6D4146EB060642EAC62141EA555141
S315080006804FEAC52040EA5E504FEACE2EB4F1FD0C83
S3150800069088BFBCF5E06F1ED8BEF1004F08BF5FEA01
S315080006A0500E50F1000041EB045170BD06F00046B3
S315080006B046EA010140EA020081EA0301B4EB5C0460
S315080006C0C2BFD4EB0C0541EA045170BD41F4801158
S315080006D04FF0000E013C00F3AB8014F1360FDEBF7D
S315080006E0002001F0004170BDC4F10004203C35DA59
S315080006F00C341BDC04F11404C4F1200500FA05F3DC
S3150800070020FA04F001FA05F240EA020001F000427C
S3150800071021F0004110EBD37021FA04F642EB0601F2
S315080007205EEA430E08BF20EAD37070BDC4F10C041C
S31508000730C4F1200500FA04F320FA05F001FA04F2E0
S3150800074040EA020001F0004110EBD37041F10001CC
S315080007505EEA430E08BF20EAD37070BDC4F12005D7
S3150800076000FA05F24EEA020E20FA04F301FA05F23F
S3150800077043EA020321FA04F001F0004121FA04F2E7
S3150800078020EA020000EBD3705EEA430E08BF20EAB7
S31508000790D37070BD94F0000F0FD101F000464000F1
S315080007A041EB010111F4801F08BF013CF7D041EA73
S315080007B0060195F0000F18BF704703F00046520077
S315080007C043EB030313F4801F08BF013DF7D043EA48
S315080007D00603704794EA0C0F0CEA135518BF95EAFE
S315080007E00C0F0CD050EA410618BF52EA4306D1D185
S315080007F081EA030101F000414FF0000070BD50EAA4
S31508000800410606BF1046194652EA430619D094EA2D
S315080008100C0F02D150EA013613D195EA0C0F05D117
S3150800082052EA03361CBF104619460AD181EA03016B
S3150800083001F0004141F0FE4141F470014FF0000023
S3150800084070BD41F0FE4141F4780170BD70B54FF0BE
S31508000850FF0C4CF4E06C1CEA11541DBF1CEA13553E
S3150800086094EA0C0F95EA0C0F00F0A7F8A4EB050420
S3150800087081EA030E52EA03354FEA013100F0888017
S315080008804FEA03334FF0805545EA131343EA1263E0
S315080008904FEA022245EA111545EA10654FEA002695
S315080008A00EF000419D4208BF964244F1FD0404F54E
S315080008B0407402D25B084FEA3202B61A65EB0305AA
S315080008C05B084FEA32024FF480104FF4002CB6EB67
S315080008D0020E75EB030E22BFB61A754640EA0C00E7
S315080008E05B084FEA3202B6EB020E75EB030E22BF27
S315080008F0B61A754640EA5C005B084FEA3202B6EB68
S31508000900020E75EB030E22BFB61A754640EA9C0026
S315080009105B084FEA3202B6EB020E75EB030E22BFF6
S31508000920B61A754640EADC0055EA060E18D04FEAB4
S31508000930051545EA16754FEA06164FEAC30343EA54
S3150800094052734FEAC2025FEA1C1CC0D111F4801F21
S315080009500BD141EA00014FF000004FF0004CB6E71A
S3150800096011F4801F04BF01430020B4F1FD0C88BFB9
S31508000970BCF5E06F3FF6AFAEB5EB030C04BFB6EBC4
S31508000980020C5FEA500C50F1000041EB045170BDB7
S315080009900EF0004E4EEA113114EB5C04C2BFD4EBE4
S315080009A00C0541EA045170BD41F480114FF0000E68
S315080009B0013C90E645EA060E8DE60CEA135594EAE4
S315080009C00C0F08BF95EA0C0F3FF43BAF94EA0C0FE7
S315080009D00AD150EA01347FF434AF95EA0C0F7FF45C
S315080009E025AF104619462CE795EA0C0F06D152EAB0
S315080009F003353FF4FDAE1046194622E750EA410694
S31508000A0018BF52EA43067FF4C5AE50EA41047FF4A4
S31508000A100DAF52EA43057FF4EBAE12E74FF0FF3C09
S31508000A2006E000BF4FF0010C02E000BF4FF0010CDA
S31508000A304DF804CD4FEA410C7FEA6C5C4FEA430C53
S31508000A4018BF7FEA6C5C1BD001B050EA410C0CBFA2
S31508000A5052EA430C91EA030F02BF90EA020F002004
S31508000A60704710F1000F91EA030F58BF994208BF6B
S31508000A7090422CBFD8176FEAE37040F00100704728
S31508000A804FEA410C7FEA6C5C02D150EA013C07D17F
S31508000A904FEA430C7FEA6C5CD6D152EA033CD3D0CA
S31508000AA05DF8040B704700BF8446104662468C46C4
S31508000AB01946634600E000BF01B5FFF7B7FF0028F7
S31508000AC048BF10F1000F01BD4DF808EDFFF7F4FF20
S31508000AD00CBF012000205DF808FB00BF4DF808EDAB
S31508000AE0FFF7EAFF34BF012000205DF808FB00BFCE
S31508000AF04DF808EDFFF7E0FF94BF012000205DF8F0
S31508000B0008FB00BF4DF808EDFFF7CEFF94BF0120A4
S31508000B1000205DF808FB00BF4DF808EDFFF7C4FF9D
S31508000B2034BF012000205DF808FB00BF4FEA410CE6
S31508000B307FEA6C5C02D150EA013C0AD14FEA430CC9
S31508000B407FEA6C5C02D152EA033C02D14FF0000006
S31508000B5070474FF0010070474FEA410212F5001244
S31508000B6015D211D56FF47873B3EB625212D94FEAE6
S31508000B70C12343F0004343EA505311F0004F23FAD0
S31508000B8002F018BF404270474FF00000704750EA25
S31508000B90013005D111F0004008BF6FF000407047E2
S31508000BA04FF00000704700BF4A0011D212F500123C
S31508000BB011D20DD56FF47873B3EB62520ED44FEAA7
S31508000BC0C12343F0004343EA505323FA02F0704727
S31508000BD04FF00000704750EA013002D14FF0FF3065
S31508000BE070474FF00000704753B94AB9002908BF4B
S31508000BF000281CBF4FF0FF314FF0FF3000F0A6B9B8
S31508000C00ADF1080C6DE904CE00F03CF8DDF804E01F
S31508000C10DDE9022304B0704738B5002200230446F4
S31508000C200D46FFF75BFF28B920462946BDE8384040
S31508000C3000F00AB8204605F1004100F005F84042E8
S31508000C4061EB410138BD00BFD0B50C4B002206460A
S31508000C500F46FFF7D1FCFFF7A7FF0446FFF752FC44
S31508000C60074B0022FFF7C8FC02460B4630463946BA
S31508000C70FFF70AFBFFF798FF2146D0BD0000F03DBD
S31508000C800000F0412DE9F047089E0D4604460F4640
S31508000C90002B4AD18A42944665D9B2FA82F343B107
S31508000CA002FA03FCC3F120029F4020FA02F217431E
S31508000CB09C404FEA1C4E1FFA8CF5B7FBFEF1220C3E
S31508000CC00EFB117742EA074201FB05F090420AD96A
S31508000CD01CEB020201F1FF3780F01C81904240F2C2
S31508000CE0198102396244121AA4B2B2FBFEF00EFB55
S31508000CF0102244EA024400FB05F5A5420AD91CEB7A
S31508000D00040400F1FF3280F00781A54240F2048115
S31508000D106444023840EA0140641B00211EB1DC40ED
S31508000D200023C6E90043BDE8F0878B4208D9002EA8
S31508000D3000F0ED800021C6E900050846BDE8F08709
S31508000D40B3FA83F1002949D1AB4202D3824200F2B9
S31508000D50F880841A65EB030201201746002EE2D0BC
S31508000D60C6E90047DFE702B9FFDEB2FA82F3002BD5
S31508000D7040F090808A1A4FEA1C471FFA8CFE012120
S31508000D80B2FBF7F507FB1520220C42EA00420EFBE0
S31508000D9005F0904208D91CEB020205F1FF3802D291
S31508000DA0904200F2CB804546121AA4B2B2FBF7F085
S31508000DB007FB102244EA02440EFB00FEA64508D9AA
S31508000DC01CEB040400F1FF3202D2A64500F2BB80F8
S31508000DD01046A4EB0E0440EA05409FE7C1F1200740
S31508000DE08B4022FA07FC4CEA030C05FA01F420FAB8
S31508000DF007F3FD404FEA1C492343B5FBF9F81FFAF0
S31508000E008CFE09FB18551C0C44EA054408FB0EF534
S31508000E10A54202FA01F200FA01F00BD91CEB040410
S31508000E2008F1FF3A80F08880A54240F28580A8F153
S31508000E3002086444641B9DB2B4FBF9F309FB13442E
S31508000E4045EA044403FB0EFEA64508D91CEB040438
S31508000E5003F1FF356CD2A6456AD9023B644443EADE
S31508000E600843A3FB0295A4EB0E04AC42C846AE4663
S31508000E7056D353D056B1B0EB080264EB0E0404FA0D
S31508000E8007F7CA40CC401743C6E900741846002144
S31508000E90BDE8F087C3F1200102FA03FC20FA01F24B
S31508000EA025FA01F19D402A434FEA1C471FFA8CFE9A
S31508000EB0B1FBF7F007FB1015110C41EA054100FBE1
S31508000EC00EF58D4204FA03F408D91CEB010100F172
S31508000ED0FF382FD28D422DD902386144491B92B270
S31508000EE0B1FBF7F507FB151142EA014205FB0EF1C6
S31508000EF0914208D91CEB020205F1FF3816D291423D
S31508000F0014D9023D6244521A45EA004138E731468F
S31508000F10304608E73946E6E61046FBE64845A9D2D4
S31508000F20B9EB020865EB0C0E013BA3E74546EAE779
S31508000F302B4694E74046D1E7D0467BE7023D62441C
S31508000F4032E708460AE76444023842E7704700BFBA
S31508000F5080B582B000AF0023FB80904B1B78FB80E6
S31508000F6034E0FB888E4AD35C7B2B2CD1FB8802337A
S31508000F708B4AD35C502B26D1FB880333884AD35C33
S31508000F803A2B20D1FB880133854AD35C502B05D0F8
S31508000F90FB880133824AD35C532B14D10023BB80D0
S31508000FA00AE0FA88BB881A44BB887D49895C7C4A72
S31508000FB0D154BB880133BB80784B1B789BB2BA8867
S31508000FC09A42EED305E0FB88013BFB80FB88002BA9
S31508000FD0C7D1744972480AF07EFF0346002B03D036
S31508000FE0714B00221A7009E070496D480AF073FFC8
S31508000FF00346002B02D06C4B01221A706848FFF793
S3150800100037F903461A463A216548FFF7E1F838608A
S315080010103B680133184609F0AFFBB0EE407AF0EEB4
S31508001020607A634B83ED987B614BD3E998014FF067
S315080010300002604BFFF770FD0346002B05D05C49A4
S315080010404FF000025B4BC1E998235548FFF710F9AA
S3150800105003461A4652215248FFF7BAF838603B68E9
S315080010600233184609F088FBB0EE407AF0EE607A53
S315080010704F4B83ED727B4E4BD3E972014FF0000262
S315080010804C4BFFF749FD0346002B05D048494FF066
S315080010900002484BC1E972234148FFF7E9F80346C5
S315080010A01A464D213E48FFF793F838603B680233ED
S315080010B0184609F061FBB0EE407AF0EE607A3C4BD8
S315080010C083ED4C7B3A4BD3E94C014FF00002394B88
S315080010D0FFF722FD0346002B05D035494FF00002E5
S315080010E0344BC1E94C232E48FFF7C2F803461A468B
S315080010F049212B48FFF76CF838603B6802331846DD
S3150800110009F03AFBB0EE407AF0EE607A284B83EDB0
S31508001110267B274BD3E926014FF00002254BFFF724
S31508001120FBFC0346002B05D021494FF00002214B5A
S31508001130C1E926231A48FFF79BF803461A465421A5
S315080011401748FFF745F838603B680233184609F038
S3150800115013FBB0EE407AF0EE607A154B83ED007B18
S31508001160134BD3E900014FF00002124BFFF7D4FCF2
S315080011700346002B05D00E494FF000020D4BC1E97E
S3150800118000230D4B01221A704FF400510B4805F04D
S31508001190C5FA00BF0837BD4680BD00BFF401002070
S315080011A0F801002020EA00082703002028EA0008A2
S315080011B0F0060020000059402603002000080048D9
S315080011C080B582B000AF78607B681B681C4A934282
S315080011D032D11C4B1B781A461B4B19781B4B99545A
S315080011E0184B1B78012B1CD9164B1B781A46174B24
S315080011F09B5C0A2B15D1134B1B78013B134AD35C16
S315080012000D2B0ED10F4B1B78023B104AD35C7D2B5E
S3150800121007D1FFF79DFE0E4B01221A70094BFF22DC
S315080012201A70084B1B780133DAB2064B1A70012282
S315080012300549084807F0BAFF00BF0837BD4680BD14
S31508001240004C0040F401002024030020F80100208F
S31508001250E80900206406002080B483B000AF7860F7
S315080012607B681B68054A934202D1054B01221A7016
S3150800127000BF0C37BD465DF8047B70470038014057
S315080012802503002080B58AB000AF07F11C030022B1
S315080012901A605A609A603B1D00221A605A609A606A
S315080012A0DA601A615A614C4B4C4A1A604A4B4FF441
S315080012B080125A60484B00229A60474B0022DA6037
S315080012C0454B01221A61444B04225A61424B0022C3
S315080012D01A76414B01225A763F4B0522DA613E4B7C
S315080012E0002283F820203C4B00229A623A4B0022C7
S315080012F0DA62394B002283F83020374B00225A63D2
S31508001300354B002283F83820334803F09DFB03460B
S31508001310002B01D001F042FA0023FB6107F11C0300
S3150800132019462D4804F0ECFA0346002B01D001F0CB
S3150800133035FA2B4B7B600623BB600723FB607F23B4
S315080013403B6104237B610023BB613B1D1946224890
S3150800135003F0A4FD0346002B01D001F01FFA214B30
S315080013607B600C23BB603B1D19461B4803F096FDAA
S315080013700346002B01D001F011FA1B4B7B601223A8
S31508001380BB603B1D1946144803F088FD0346002B35
S3150800139001D001F003FA154B7B601823BB603B1D97
S315080013A019460D4803F07AFD0346002B01D001F0DB
S315080013B0F5F90F4B7B604FF48073BB603B1D1946F4
S315080013C0054803F06BFD0346002B01D001F0E6F952
S315080013D000BF2837BD4680BD280300200000045002
S315080013E00004002A0002B0258000501D0800900C59
S315080013F01000C01080B586B000AF3B4600221A60C8
S315080014005A609A60DA601A615A614D4B4D4A1A6001
S315080014104B4B4FF480125A60494B00229A60484B56
S315080014200022DA60464B01221A61454B04225A61B2
S31508001430434B00221A76424B01225A76404B06222B
S31508001440DA613F4B002283F820203D4B00229A6246
S315080014503B4B0022DA623A4B012283F83020384BA4
S3150800146000225A63364B002283F83820344803F0AA
S31508001470EBFA0346002B01D001F090F9324B3B60A2
S3150800148006237B600723BB607F23FB6004233B6145
S3150800149000237B613B461946294803F0FFFC0346B7
S315080014A0002B01D001F07AF9284B3B600C237B60B6
S315080014B03B461946224803F0F1FC0346002B01D0AF
S315080014C001F06CF9224B3B6012237B603B461946C0
S315080014D01B4803F0E3FC0346002B01D001F05EF93C
S315080014E01C4B3B6018237B603B461946144803F0A7
S315080014F0D5FC0346002B01D001F050F9164B3B6092
S315080015004FF480737B603B4619460D4803F0C6FCD2
S315080015100346002B01D001F041F9104B3B604FF414
S3150800152083737B603B461946054803F0B7FC0346C0
S31508001530002B01D001F032F900BF1837BD4680BD37
S315080015408C030020000104500200300404006008E7
S3150800155040002019000180210008302E001060325A
S3150800156080B58EB000AF786007F1240300221A60B8
S315080015705A609A60DA601A617B681B68614A93420E
S3150800158046D1614B1B6801335F4A13605E4B1B688B
S31508001590012B0BD15D4BDB6C5C4A43F40053D364DF
S315080015A05A4BDB6C03F400533B623B6A574BDB6CCC
S315080015B0564A43F00403D364544BDB6C03F004032C
S315080015C0FB61FB69514BDB6C504A43F00103D36462
S315080015D04E4BDB6C03F00103BB61BB690C237B62DA
S315080015E00B23BB620023FB6207F124031946484814
S315080015F004F0BAFE34237B620B23BB620023FB6232
S3150800160007F1240319464FF0904004F0ADFE75E04B
S315080016107B681B683F4A934270D13B4B1B6801337A
S31508001620394A1360384B1B68012B0BD1374BDB6CDF
S31508001630364A43F40053D364344BDB6C03F400534B
S315080016407B617B69314BDB6C304A43F00403D3641E
S315080016502E4BDB6C03F004033B613B692B4BDB6CC5
S315080016602A4A43F00103D364284BDB6C03F00103D9
S31508001670FB60FB6803237B620B23BB620023FB62D0
S3150800168007F124031946224804F06EFECA237B623A
S315080016900B23BB620023FB6207F1240319464FF0B4
S315080016A0904004F061FE1C4B1C4A1A601A4B00223B
S315080016B05A60194B00229A60174B0022DA60164BC3
S315080016C080221A61144B4FF480725A61124B4FF400
S315080016D080629A61104B2022DA610F4B00221A624F
S315080016E00D4804F0CBFB0346002B01D001F056F859
S315080016F07B68094ADA64084A7B68936200BF383710
S31508001700BD4680BD00000450380400200010024089
S315080017100008004800010450F00300201C000240A5
S31508001720B0B500AF264BB3F880321846FEF7FAFE7E
S3150800173004460D46234B1B899BB21846FEF7F2FE5C
S315080017401BA3D3E90023FEF757FF02460B462046A4
S315080017502946FEF79BFD02460B461046194616A378
S31508001760D3E90023FFF772F802460B4610461946DE
S31508001770FFF71AFA03469AB2114BA3F88022104BC8
S31508001780B3F88032B3F5FA6F05D80D4BB3F880324B
S31508001790B3F5C86F04D20A4B012283F8772204E016
S315080017A0074B002283F8772200BF00BFB0BD00BFF9
S315080017B07B14AE47E17A843F295C8FC2F528F03F57
S315080017C0F0060020EC090020B0B500AF284BB3F8AE
S315080017D0E8311846FEF7A6FE04460D46254BDB887B
S315080017E09BB21846FEF79EFE1DA3D3E90023FEF71B
S315080017F003FF02460B4620462946FEF747FD0246EA
S315080018000B461046194618A3D3E90023FFF71EF81E
S3150800181002460B4610461946FFF7C6F903469AB222
S31508001820134BA3F8E821124BB3F8E83140F29E7245
S31508001830934206D80E4BB3F8E83140F20D62934254
S3150800184004D80B4B012283F8DF2104E0084B002261
S3150800185083F8DF2100BF00BFB0BD00BFAFF3008033
S315080018607B14AE47E17A843F295C8FC2F528F03FA6
S31508001870F0060020EC090020B0B500AF264BB3F8FF
S3150800188050311846FEF74EFE04460D46234B9B88FC
S315080018909BB21846FEF746FE1BA3D3E90023FEF7C4
S315080018A0ABFE02460B4620462946FEF7EFFC0246EB
S315080018B00B461046194616A3D3E90023FEF7C6FFC2
S315080018C002460B4610461946FFF76EF903469AB2CA
S315080018D0114BA3F85021104BB3F8503140F2BC72AB
S315080018E0934205D80C4BB3F85031B3F5C86F04D200
S315080018F0094B012283F8472104E0074B002283F8AD
S31508001900472100BF00BFB0BD7B14AE47E17A843FD4
S31508001910295C8FC2F528F03FF0060020EC0900206C
S31508001920B0B500AF284BB3F8B8301846FEF7FAFD45
S3150800193004460D46254B5B889BB21846FEF7F2FD1A
S315080019401DA3D3E90023FEF757FE02460B462046A1
S315080019502946FEF79BFC02460B461046194618A375
S31508001960D3E90023FEF772FF02460B4610461946D6
S31508001970FFF71AF903469AB2134BA3F8B820124B8D
S31508001980B3F8B83040F29E72934206D80E4BB3F8BD
S31508001990B83040F2DB52934204D80B4B012283F84D
S315080019A0AF2004E0084B002283F8AF2000BF00BF39
S315080019B0B0BD00BFAFF300807B14AE47E17A843F29
S315080019C0295C8FC2F528F03FF0060020EC090020BC
S315080019D0B0B500AF244B1B8C1846FEF7A3FD044692
S315080019E00D46224B1B889BB21846FEF79BFD1AA391
S315080019F0D3E90023FEF700FE02460B462046294699
S31508001A00FEF744FC02460B461046194614A3D3E9D2
S31508001A100023FEF71BFF02460B4610461946FFF742
S31508001A20C3F803469AB2104B1A840F4B1B8CB3F5B6
S31508001A30BE6F04D80C4B1B8CB3F5F06F03D20A4B60
S31508001A400122DA7503E0084B0022DA7500BF00BFF1
S31508001A50B0BD00BFAFF300807B14AE47E17A843F88
S31508001A60295C8FC2F528F03FF0060020EC0900201B
S31508001A7080B500AF174B184A1A60164B10225A60E9
S31508001A80144B00229A60134B0022DA60114B4FF474
S31508001A9040321A610F4B00225A610E4B00221A7609
S31508001AA00C4B00225A760B4B00229A76094B0022E1
S31508001AB0DA76084B00221A77064B00225A77054831
S31508001AC003F0CEFF0346002B01D000F067FE00BFEF
S31508001AD080BD00BF3C0400200064004080B58AB089
S31508001AE000AF786007F1140300221A605A609A6002
S31508001AF0DA601A617B681B68184A934229D1184B29
S31508001B009B6D174A43F000739365154B9B6D03F065
S31508001B1000733B613B69124BDB6C114A43F00103CE
S31508001B20D3640F4BDB6C03F00103FB60FB684FF4D7
S31508001B30C0537B610223BB610023FB6103233B6225
S31508001B4009237B6207F1140319464FF0904004F00D
S31508001B500BFC00BF2837BD4680BD00BF00640040AF
S31508001B600010024080B582B000AF0C4B9B6C0B4A4C
S31508001B7043F001039364094B9B6C03F001037B60FC
S31508001B807B68002200210C2004F041F90C2004F0A7
S31508001B905AF900BF0837BD4680BD00BF0010024095
S31508001BA080B58AB000AF07F1140300221A605A60A4
S31508001BB09A60DA601A61514BDB6C504A43F00403B1
S31508001BC0D3644E4BDB6C03F004033B613B694B4B20
S31508001BD0DB6C4A4A43F08003D364484BDB6C03F062
S31508001BE08003FB60FB68454BDB6C444A43F001030A
S31508001BF0D364424BDB6C03F00103BB60BB683F4B0D
S31508001C00DB6C3E4A43F00203D3643C4BDB6C03F0C7
S31508001C1002037B607B6800224FF4C041384804F019
S31508001C2065FD4FF4C0437B610123BB610023FB6163
S31508001C3000233B6207F114031946314804F094FB6C
S31508001C4030237B614FF44413BB610023FB6107F12A
S31508001C50140319462A4804F087FB4FF207037B61F1
S31508001C604FF44413BB610023FB6107F114031946C3
S31508001C70244804F079FB4FF480637B614FF44413E6
S31508001C80BB610023FB6107F1140319464FF090402E
S31508001C9004F06AFB00220021062004F0B8F80620AA
S31508001CA004F0D1F800220021072004F0B0F807203C
S31508001CB004F0C9F800220021082004F0A8F808203A
S31508001CC004F0C1F8002200210A2004F0A0F80A2036
S31508001CD004F0B9F800220021172004F098F817201C
S31508001CE004F0B1F800220021282004F090F82820FA
S31508001CF004F0A9F800BF2837BD4680BD0010024091
S31508001D00000800480004004880B483B000AF0346CA
S31508001D10FB80FB88B3F5004F00F01B81B3F5004F3D
S31508001D2000F38282B3F5804F00F0D980B3F5804F77
S31508001D3000F37A82B3F5005F5DD0B3F5005F00F378
S31508001D407382B3F5805F00F09080B3F5805F00F38F
S31508001D506B82202B4ADC002B40F36682013B1F2B4B
S31508001D6000F2628201A252F823F000BFB5200008F3
S31508001D7029210008292200089D2100082922000897
S31508001D8029220008292200082922000829220008F9
S31508001D9029220008292200082922000829220008E9
S31508001DA029220008292200083B20000829220008C9
S31508001DB029220008292200082922000829220008C9
S31508001DC029220008292200082922000829220008B9
S31508001DD029220008292200082922000829220008A9
S31508001DE02922000829220008C71F0008B3F5806FBA
S31508001DF000F0F78118E2AD4B93F87332012B02D04D
S31508001E00022B15D030E0A94BB3F8703201339AB2E1
S31508001E10A64BA3F87022A54BB3F8703246F2F452DB
S31508001E2093421ED9A14B46F2F452A3F8702218E049
S31508001E309E4BB3F87032013B9AB29C4BA3F87022C2
S31508001E409A4BB3F870324FF67872934204D8974B90
S31508001E50B3F87032C72B06D8944B0022A3F8702229
S31508001E6001E000BFE1E100BFDFE1904B93F8733278
S31508001E70012B02D0022B15D030E08C4BB3F8703210
S31508001E8001339AB2894BA3F87022884BB3F87032A3
S31508001E9046F2F45293421ED9844B46F2F452A3F802
S31508001EA0702218E0814BB3F87032013B9AB27F4B2F
S31508001EB0A3F870227D4BB3F870324FF678729342CE
S31508001EC004D87A4BB3F87032C72B06D8774B002262
S31508001ED0A3F8702201E000BFA7E100BFA5E1734B9C
S31508001EE093F8DB31012B02D0022B15D030E06F4B73
S31508001EF0B3F8D83101339AB26C4BA3F8D8216B4B9F
S31508001F00B3F8D83145F6507293421ED9674B45F659
S31508001F105072A3F8D82118E0644BB3F8D831013BC6
S31508001F209AB2624BA3F8D821604BB3F8D8314FF672
S31508001F307872934204D85D4BB3F8D831C72B06D8CC
S31508001F405A4B0022A3F8D82101E000BF6DE100BF7B
S31508001F506BE1564B93F8DB31012B02D0022B15D0DF
S31508001F6030E0524BB3F8D83101339AB24F4BA3F84D
S31508001F70D8214E4BB3F8D83145F6507293421ED944
S31508001F804A4B45F65072A3F8D82118E0474BB3F8E8
S31508001F90D831013B9AB2454BA3F8D821434BB3F845
S31508001FA0D8314FF67872934204D8404BB3F8D831FB
S31508001FB0C72B06D83D4B0022A3F8D82101E000BF65
S31508001FC033E100BF31E1394B93F84331012B02D09D
S31508001FD0022B15D030E0354BB3F8403101339AB2B5
S31508001FE0324BA3F84021314BB3F8403146F2C84290
S31508001FF093421ED92D4B46F2C842A3F8402118E059
S315080020002A4BB3F84031013B9AB2284BA3F840213A
S31508002010264BB3F840314FF67872934204D8234BD7
S31508002020B3F84031C72B06D8204B0022A3F840212D
S3150800203001E000BFF9E000BFF7E01C4B93F843311D
S31508002040012B02D0022B15D033E0184BB3F84031E0
S3150800205001339AB2154BA3F84021144BB3F840311B
S3150800206046F2C84293421ED9104B46F2C842A3F81C
S31508002070402118E00D4BB3F84031013B9AB20B4BA7
S31508002080A3F84021094BB3F840314FF678729342D2
S3150800209004D8064BB3F84031C72B09D8034B0022A6
S315080020A0A3F8402104E000BFBFE000BFF00600200F
S315080020B000BFBAE0604B93F8AB30012B02D0022B7D
S315080020C015D030E05C4BB3F8A83001339AB25A4BBE
S315080020D0A3F8A820584BB3F8A83046F28472934266
S315080020E01ED9554B46F28472A3F8A82018E0524B25
S315080020F0B3F8A830013B9AB24F4BA3F8A8204E4B31
S31508002100B3F8A8304FF67872934204D84A4BB3F81E
S31508002110A830C72B06D8484B0022A3F8A82001E010
S3150800212000BF82E000BF80E0434B93F8AB30012B41
S3150800213002D0022B15D030E03F4BB3F8A83001335C
S315080021409AB23D4BA3F8A8203B4BB3F8A83046F209
S31508002150847293421ED9384B46F28472A3F8A8209B
S3150800216018E0354BB3F8A830013B9AB2324BA3F8C6
S31508002170A820314BB3F8A8304FF67872934204D8AA
S315080021802D4BB3F8A830C72B06D82B4B0022A3F843
S31508002190A82001E000BF48E000BF46E0264BDB7CF4
S315080021A0012B02D0022B07D01AE0234B1B8A0133DE
S315080021B09AB2214B1A8213E01F4B1B8A013B9AB233
S315080021C01D4B1A821C4B1B8A4FF67872934203D812
S315080021D0194B1B8AC72B02D8174B00221A8200BF3D
S315080021E023E0154BDB7C012B02D0022B07D01AE02B
S315080021F0114B1B8A01339AB20F4B1A8213E00E4B0E
S315080022001B8A013B9AB20C4B1A820B4B1B8A4FF660
S315080022107872934203D8084B1B8AC72B02D8064B01
S3150800222000221A8200BF00E000BF00BF0C37BD467F
S315080022305DF8047B704700BFF00600202DE9F041E9
S3150800224088B004AF02F091F900F024FA00F071FAB0
S31508002250FFF7A6FCFFF786FCFFF714F8FFF7CAF8A6
S31508002260FFF706FC00F076FC00F00EFD00F070FDAE
S3150800227000F0D2FD00F06CFE01F062F800F030FECE
S3150800228001F04AFF01224FF48041A04804F02EFADB
S315080022909F49002001F052FDFFF79AFB9C4B9B7C5F
S315080022A0002B03D19A49002001F022FCFFF738FBE6
S315080022B09849012001F042FD954B93F8AA30002B6E
S315080022C003D19449012001F013FCFFF7D5FA92498E
S315080022D0022002F05DF89049022001F02FFD8C4B98
S315080022E093F84231002B03D18B49022001F000FC00
S315080022F08A49032001F022FD8849032002F048F8A4
S31508002300FFF762FA824B93F8DA31002B03D183493F
S31508002310032001F0EDFB8249042001F00FFD8049FE
S31508002320042002F035F8FFF7FBF9794B93F872327F
S31508002330002B03D17A49042001F0DAFB794B1B788C
S31508002340002BA5D0774B00221A70714BB3F8803258
S3150800235040F2EB62934215D86D4BB3F88032C3F561
S31508002360DD630433704A82FB0312D210DB17D31ADB
S315080023709BB21A465201D21A92001344DB009BB252
S31508002380BB8113E0624BB3F88032A3F2EC63674A71
S3150800239082FB03121212DB17D31A9BB21A4652019A
S315080023A0D21A92001344DB009BB2BB81584BB3F898
S315080023B0E83140F2F462934215D8554BB3F8E83148
S315080023C0C3F5DE6305335A4A82FB03129211DB1703
S315080023D0D31A9BB21A465201D21A92001344DB0052
S315080023E09BB27B8114E04A4BB3F8E831A3F2F5635C
S315080023F0504A82FB03121A441212DB17D31A9BB2F5
S315080024001A465201D21A92001344DB009BB27B8112
S315080024103F4BB3F8503140F2D562934215D83C4B46
S31508002420B3F85031C3F5DA630633434A82FB031225
S31508002430D211DB17D31A9BB21A465201D21A92004E
S315080024401344DB009BB23B8113E0314BB3F85031A8
S31508002450A3F2D663394A82FB0312D211DB17D31AC9
S315080024609BB21A465201D21A92001344DB009BB261
S315080024703B81274BB3F8B830B3F5D36F15D2244B4D
S31508002480B3F8B830C3F5D3632A4A82FB03121A4459
S315080024901212DB17D31A9BB21A465201D21A9200AD
S315080024A01344DB009BB2FB8013E0194BB3F8B8303A
S315080024B0A3F5D363224A82FB0312D211DB17D31A80
S315080024C09BB21A465201D21A92001344DB009BB201
S315080024D0FB800F4B1B8C40F2A462934234D80C4B02
S315080024E01B8CC3F5D4630533164A82FB03121A44C0
S315080024F01212DB17D31A9BB21A465201D21A92004D
S315080025001344DB009BB2BB8031E000BF00080048E3
S31508002510F00600208807002020080020B8080020C0
S3150800252050090020260300205B3D3B0411D9977C07
S3150800253011C6B01F0352DA8DB71A3C47B3BE913C99
S315080025407D55783B8DC0088C4B4B1B8CA3F2A5633D
S315080025504A4A82FB03121212DB17D31A9BB21A4697
S315080025605201D21A92001344DB009BB2BB80BB898E
S3150800257018467B891C463B89FA88B98802910192DC
S315080025800093234602463E493E4809F027FC3D484B
S31508002590FDF76EFE03469AB205233A493A4806F015
S315080025A07BFD012002F056F8334BD3E99A014FF030
S315080025B00002364BFEF720F802460B46104619462F
S315080025C0FEF7F2FA03469BB21E462B4BD3E974017B
S315080025D04FF000022D4BFEF70FF802460B46104649
S315080025E01946FEF7E1FA03469BB29846224BD3E911
S315080025F04E014FF00002254BFDF7FEFF02460B4643
S3150800260010461946FEF7D0FA03469BB21C461A4BEB
S31508002610D3E928014FF000021C4BFDF7EDFF0246F7
S315080026200B4610461946FEF7BFFA03469BB21D46EF
S31508002630114BD3E902014FF00002144BFDF7DCFF02
S3150800264002460B4610461946FEF7AEFA03469BB2FB
S31508002650029301950094434632460D49094809F00C
S31508002660BDFB0848FDF704FE03469AB20523054953
S31508002670054806F011FD0BE6F00600204553627189
S3150800268030EA00086404002064060020000059406F
S3150800269050EA000880B596B000AF07F1140344224B
S315080026A00021184609F0FDFB3B4600221A605A60D5
S315080026B09A60DA601A614FF4007004F06FF8034606
S315080026C0002B01D000F06AF801237B614FF4A023A8
S315080026D0BB610223FB6303233B6401237B6414234E
S315080026E0BB640723FB6402233B6502237B6507F172
S315080026F01403184604F0A8F80346002B01D000F08E
S315080027004DF80F233B6003237B600023BB60002347
S31508002710FB6000233B613B460421184604F070FC2D
S315080027200346002B01D000F039F800BF5837BD46E4
S3150800273080BD80B5A2B000AF3B468822002118466E
S3150800274009F0AFFB4FF480433B604FF08053BB6703
S3150800275003237B600123BB600823FB6007233B61DF
S3150800276002237B610823BB614FF08073FB613B4604
S31508002770184604F069FE0346002B01D000F00EF857
S3150800278000BF8837BD4680BD80B483B000AF78608F
S3150800279000BF0C37BD465DF8047B704780B400AFB8
S315080027A072B600BFFEE7000080B582B000AF0F4BDF
S315080027B01B6E0E4A43F0010313660C4B1B6E03F0A7
S315080027C001037B607B68094B9B6D084A43F0805385
S315080027D09365064B9B6D03F080533B603B68042072
S315080027E003F00AFB00BF0837BD4680BD0010024053
S315080027F080B400AFFEE7000080B500AF00224FF4BA
S315080028008041024803F072FFFEE700BF0008004857
S3150800281080B400AFFEE780B400AFFEE780B400AF37
S31508002820FEE780B400AF00BFBD465DF8047B704785
S3150800283080B400AF00BFBD465DF8047B704780B426
S3150800284000AF00BFBD465DF8047B704780B500AF9A
S3150800285001F0E0FE204B1B889BB201339AB21E4B57
S315080028601A801E4BB3F8BC309BB201339AB21B4B8D
S31508002870A3F8BC20194BB3F854319BB201339AB272
S31508002880164BA3F85421154BB3F884329BB2013387
S315080028909AB2124BA3F88422104BB3F8EC319BB2D0
S315080028A001339AB20D4BA3F8EC210C4B9B8C9BB2CF
S315080028B001339AB2094B9A84094B1B78DBB2012B78
S315080028C008D1084800F058FE074800F055FE0748AA
S315080028D000F052FE00BF80BDF8090020F006002077
S315080028E02703002048080020E00800207809002077
S315080028F080B500AF012003F02BFF00BF80BD80B577
S3150800290000AF022003F024FF00BF80BD80B500AFF2
S31508002910042003F01DFF00BF80BD80B500AF102066
S3150800292003F016FF00BF80BD80B500AF024803F074
S315080029303CFC00BF80BD00BFF003002080B500AF9F
S31508002940202003F005FF00BF80BD80B500AF4FF41F
S31508002950806003F0FDFE4FF4805003F0F9FE4FF45B
S31508002960005003F0F5FE4FF4804003F0F1FE4FF4FB
S31508002970004003F0EDFE00BF80BD000080B500AF4B
S31508002980024806F05FFC00BF80BD00BF6406002059
S3150800299080B500AF024805F039FC00BF80BD00BF16
S315080029A0CC05002080B400AF01231846BD465DF86B
S315080029B0047B704780B582B000AF7860396009F053
S315080029C0EBFA034616221A604FF0FF33184608370B
S315080029D0BD4680BD80B582B000AF78604FF0FF314C
S315080029E07868FFF7E7FFFEE780B586B000AFF860C6
S315080029F0B9607A6000237B610AE0AFF30080014684
S31508002A00BB685A1CBA60CAB21A707B6901337B610B
S31508002A107A697B689A42F0DB7B6818461837BD46A8
S31508002A2080BD80B586B000AFF860B9607A600023D3
S31508002A307B6109E0BB685A1CBA601B781846AFF37D
S31508002A4000807B6901337B617A697B689A42F1DB96
S31508002A507B6818461837BD4680BD80B483B000AF82
S31508002A6078604FF0FF3318460C37BD465DF8047B97
S31508002A70704780B483B000AF786039603B684FF424
S31508002A8000525A60002318460C37BD465DF8047B91
S31508002A90704780B483B000AF7860012318460C37BE
S31508002AA0BD465DF8047B704780B485B000AFF8601A
S31508002AB0B9607A60002318461437BD465DF8047B72
S31508002AC07047000080B586B000AF7860144A154B91
S31508002AD0D31A7B617B693B61134B1B68002B02D1C0
S31508002AE0114B124A1A60104B1A687B6813443A69EC
S31508002AF09A4207D209F050FA03460C221A604FF0A0
S31508002B00FF3309E0084B1B68FB60074B1A687B68B4
S31508002B101344054A1360FB6818461837BD4680BD3E
S31508002B20008001200004000098040020500B0020BB
S31508002B3080B400AF064BD3F88830054A43F47003D7
S31508002B40C2F8883000BFBD465DF8047B704700BFF9
S31508002B5000ED00E080B596B000AF07F14C03002207
S31508002B601A605A609A6007F1300300221A605A60A8
S31508002B709A60DA601A615A619A613B1D2C2200211B
S31508002B80184609F08EF93E4B3E4A1A603C4B18220D
S31508002B905A603B4B00229A60394B6322DA60384B05
S31508002BA000221A61364B00225A61354B00229A617F
S31508002BB0334805F0CDF90346002B01D0FFF7EEFDAB
S31508002BC00023FB6400233B6500237B6507F14C0368
S31508002BD019462B4806F0EEF80346002B01D0FFF7FE
S31508002BE0DDFD60233B6300237B630023BB63002377
S31508002BF0FB6304233B6400237B640023BB6407F167
S31508002C003003002219461E4805F002FC0346002B35
S31508002C1001D0FFF7C3FD07F130030422194618480F
S31508002C2005F0F6FB0346002B01D0FFF7B7FD00239E
S31508002C307B600023BB600023FB6000233B6100230D
S31508002C407B614FF40053BB610023FB6100233B62A9
S31508002C504FF000737B620023BB620023FB623B1DBF
S31508002C601946074806F02EF90346002B01D0FFF750
S31508002C7095FD034800F09AFA00BF5837BD4680BD57
S31508002C809C040020002C014080B58AB000AF07F1F3
S31508002C901C0300221A605A609A603B4600221A609A
S31508002CA05A609A60DA601A615A619A61274B4FF046
S31508002CB080421A60254B18225A60244B00229A60DB
S31508002CC0224B6322DA60214B00221A611F4B002235
S31508002CD09A611E4805F03CF90346002B01D0FFF720
S31508002CE05DFD0023FB6100237B6207F11C03194687
S31508002CF0164806F05FF80346002B01D0FFF74EFD95
S31508002D0060233B6000237B600023BB6004233B6198
S31508002D103B46082219460D4805F07AFB0346002B68
S31508002D2001D0FFF73BFD3B460C221946074805F044
S31508002D306FFB0346002B01D0FFF730FD034800F078
S31508002D4035FA00BF2837BD4680BD00BFE80400201D
S31508002D5080B58AB000AF07F11C0300221A605A60DA
S31508002D609A603B4600221A605A609A60DA601A61D5
S31508002D705A619A61264B274A1A60254B18225A60CF
S31508002D80234B00229A60224B6322DA60204B0022F2
S31508002D901A611F4B00229A611D4805F0D9F80346AF
S31508002DA0002B01D0FFF7FAFC0023FB6100237B62AE
S31508002DB007F11C031946164805F0FCFF0346002BCD
S31508002DC001D0FFF7EBFC60233B6000237B60002308
S31508002DD0BB6004233B613B46002219460C4805F0BC
S31508002DE017FB0346002B01D0FFF7D8FC3B4604220D
S31508002DF01946074805F00CFB0346002B01D0FFF7E0
S31508002E00CDFC034800F0D2F900BF2837BD4680BD87
S31508002E10340500200004004080B58AB000AF07F1F1
S31508002E201C0300221A605A609A603B4600221A6008
S31508002E305A609A60DA601A615A619A61264B274A83
S31508002E401A60254B18225A60234B00229A60224B9F
S31508002E506322DA60204B00221A611F4B00229A6116
S31508002E601D4805F075F80346002B01D0FFF796FCC0
S31508002E700023FB6100237B6207F11C0319461648F1
S31508002E8005F098FF0346002B01D0FFF787FC602367
S31508002E903B6000237B600023BB6004233B613B4609
S31508002EA0002219460C4805F0B3FA0346002B01D058
S31508002EB0FFF774FC3B4604221946074805F0A8FAB2
S31508002EC00346002B01D0FFF769FC034800F06EF9B2
S31508002ED000BF2837BD4680BD800500200008004099
S31508002EE080B584B000AF3B1D00221A605A609A6014
S31508002EF0154B164A1A60144B40F21F325A60124B91
S31508002F0000229A60104B40F2E732DA600E4B00223C
S31508002F109A610D4804F054FF0346002B01D0FFF7D1
S31508002F203DFC00237B600023FB603B1D19460648D9
S31508002F3005F040FF0346002B01D0FFF72FFC00BF2A
S31508002F401037BD4680BD00BFCC05002000140040E8
S31508002F5080B596B000AF07F14C0300221A605A609C
S31508002F609A6007F1300300221A605A609A60DA60A4
S31508002F701A615A619A613B1D2C220021184608F0F5
S31508002F8090FF3E4B3E4A1A603C4B18225A603B4B18
S31508002F9000229A60394B6322DA60384B00221A61A4
S31508002FA0364B00225A61354B00229A61334804F0A9
S31508002FB0CFFF0346002B01D0FFF7F0FB0023FB648D
S31508002FC000233B6500237B6507F14C0319462B4814
S31508002FD005F0F0FE0346002B01D0FFF7DFFB602368
S31508002FE03B6300237B630023BB630023FB6304234B
S31508002FF03B6400237B640023BB6407F13003002293
S3150800300019461E4805F004FA0346002B01D0FFF7BF
S31508003010C5FB07F1300304221946184805F0F8F9EC
S315080030200346002B01D0FFF7B9FB00237B60002382
S31508003030BB600023FB6000233B6100237B614FF4E8
S315080030400053BB610023FB6100233B624FF0007312
S315080030507B620023BB620023FB623B1D19460748BF
S3150800306005F030FF0346002B01D0FFF797FB034816
S3150800307000F09CF800BF5837BD4680BD18060020F2
S315080030800034014080B489B000AF78607B681B6863
S315080030902E4A93420CD12E4B1B6E2D4A43F40063E5
S315080030A013662B4B1B6E03F40063FB61FB6946E05A
S315080030B07B681B68B3F1804F0CD1254B9B6D244A66
S315080030C043F001039365224B9B6D03F00103BB613B
S315080030D0BB6934E07B681B681E4A93420CD11C4BC3
S315080030E09B6D1B4A43F002039365194B9B6D03F0D6
S315080030F002037B617B6922E07B681B68164A934260
S315080031000CD1134B9B6D124A43F004039365104B85
S315080031109B6D03F004033B613B6910E07B681B6809
S315080031200E4A93420BD10A4B1B6E094A43F40053CD
S315080031301366074B1B6E03F40053FB60FB6800BF66
S315080031402437BD465DF8047B704700BF002C01405C
S31508003150001002400004004000080040003401400E
S3150800316080B584B000AF78607B681B680D4A9342CF
S3150800317013D10D4B9B6D0C4A43F0200393650A4B04
S315080031809B6D03F02003FB60FB68002201213720BA
S3150800319002F03DFE372002F056FE00BF1037BD464E
S315080031A080BD00BF001400400010024080B58CB0FE
S315080031B000AF786007F11C0300221A605A609A6013
S315080031C0DA601A617B681B68564A93421ED1564BD1
S315080031D0DB6C554A43F00103D364534BDB6C03F0B5
S315080031E00103BB61BB694FF44073FB6102233B6279
S315080031F000237B620023BB620123FB6207F11C03E9
S3150800320019464FF0904003F0AFF887E07B681B68DB
S31508003210B3F1804F1DD1444BDB6C434A43F00203A4
S31508003220D364414BDB6C03F002037B617B694FF48B
S315080032304063FB6102233B6200237B620023BB627F
S315080032400123FB6207F11C031946384803F08CF882
S3150800325064E07B681B68364A93421CD1324BDB6CB0
S31508003260314A43F00203D3642F4BDB6C03F00203AD
S315080032703B613B693023FB6102233B6200237B628F
S315080032800023BB620223FB6207F11C031946274889
S3150800329003F06AF842E07B681B68264A93421CD111
S315080032A0214BDB6C204A43F00203D3641E4BDB6CD4
S315080032B003F00203FB60FB68C023FB6102233B6249
S315080032C000237B620023BB620223FB6207F11C0317
S315080032D01946164803F048F820E07B681B68164A2A
S315080032E093421BD1104BDB6C0F4A43F00403D364A3
S315080032F00D4BDB6C03F00403BB60BB68C023FB61AA
S3150800330002233B6200237B620023BB620323FB622A
S3150800331007F11C031946094803F026F800BF3037A1
S31508003320BD4680BD002C0140001002400004004844
S31508003330000400400008004000340140000800482E
S3150800334080B500AF144B154A1A60134B4FF4E1329F
S315080033505A60114B00229A600F4B0022DA600E4B1E
S3150800336000221A610C4B0C225A610B4B00229A61FF
S31508003370094B0022DA61084B00221A62064B00222A
S315080033805A62054805F03AFE0346002B01D0FFF7BE
S3150800339005FA00BF80BD00BF64060020004C00404F
S315080033A080B5ACB000AF786007F19C0300221A60C4
S315080033B05A609A60DA601A6107F1140388220021BC
S315080033C0184608F06EFD7B681B68254A934243D170
S315080033D008237B610023BB6507F11403184604F034
S315080033E033F80346002B01D0FFF7D8F91D4B9B6D28
S315080033F01C4A43F4002393651A4B9B6D03F4002380
S315080034003B613B69174BDB6C164A43F00403D364F4
S31508003410144BDB6C03F00403FB60FB684FF440635A
S31508003420C7F89C300223C7F8A0300123C7F8A43098
S315080034300323C7F8A8300823C7F8AC3007F19C0364
S315080034401946094802F090FF00220021342002F0B4
S31508003450DEFC342002F0F7FC00BFB037BD4680BD65
S31508003460004C0040001002400008004880B582B0B9
S3150800347000AF78607B685B6CD3E900237968C1E9A3
S3150800348014237B681B6CD3E900237968C1E91623EA
S315080034907B68D3E914017B68D3E91A23FDF73CFB63
S315080034A00346002B06D07B68D3E91A237968C1E95D
S315080034B0142311E07B68D3E914017B68D3E9182348
S315080034C0FDF70CFB0346002B00D105E07B68D3E92A
S315080034D018237968C1E9142300BF0837BD4680BDA3
S315080034E080B58AB000AF78623962FA61BB6187ED50
S315080034F0040B87ED021B87ED002B7B6AFA695A6479
S315080035007B6A3A6A1A647B6ABA699A647B6A002299
S315080035105A709FED151B9FED160B786A00F056F949
S315080035207B6A64229A6097F834301946786A00F004
S3150800353063FA97F83030194697ED002B97ED021B82
S3150800354097ED040B786A00F0AFF901F077F80246B8
S315080035507B6A9B68D21A7B6A5A6000BF2837BD46C9
S3150800356080BD00BFAFF300800000000000E06F40A0
S315080035700000000000000000B0B58CB000AF786015
S315080035807B685B78002B01D10023F5E001F056F843
S3150800359078627B685B687A6AD31A3B627B689B6849
S315080035A03A6A9A42C0F0E7807B681B6CD3E900232D
S315080035B0C7E906237B689B6CD3E90001D7E9062394
S315080035C0FCF762FE02460B46C7E904237B68D3E98B
S315080035D01623D7E90601FCF757FE02460B46C7E94C
S315080035E002237B68D3E914457B68D3E90C01D7E944
S315080035F00423FDF701F802460B4620462946FCF748
S3150800360045FE02460B467968C1E914237B681B7898
S31508003610002B14D17B68D3E914457B68D3E90A01EA
S31508003620D7E90223FCF7E8FF02460B46204629465F
S31508003630FCF72AFE02460B467968C1E914237B6823
S31508003640D3E914017B68D3E91A23FDF765FA034623
S31508003650002B06D07B68D3E91A237968C1E91423BD
S3150800366010E07B68D3E914017B68D3E91823FDF7DA
S3150800367035FA0346002B05D07B68D3E91823796809
S31508003680C1E914237B681B78002B0BD07B68D3E930
S315080036900A23D7E90401FCF7AFFF02460B46C7E940
S315080036A00A2305E04FF000024FF00003C7E90A239A
S315080036B07B68D3E914457B68D3E90E01D7E9022371
S315080036C0FCF79AFF02460B4620462946FCF7DCFD26
S315080036D002460B46D7E90A01FCF7D8FD02460B4617
S315080036E0C7E90A237B68D3E91A23D7E90A01FDF754
S315080036F013FA0346002B05D07B68D3E91A23C7E9DA
S315080037000A230EE07B68D3E91823D7E90A01FDF7F7
S31508003710E5F90346002B04D07B68D3E91823C7E9EB
S315080037200A2317A3D3E90023D7E90401FDF7D6F93D
S315080037300346002B0FD014A3D3E90023D7E90401CD
S31508003740FDF7EAF90346002B05D04FF000024FF0CB
S315080037500003C7E90A237B68596CD7E90A23C1E93C
S3150800376000237968D7E90623C1E916237B687A6AB4
S315080037705A60012300E0002318463037BD46B0BD25
S315080037809A9999999999B93F9A9999999999B9BF8D
S3150800379080B584B000AF78600B46FB70FB78012BD0
S315080037A00CBF01230023DBB2FB73FB7B002B06D087
S315080037B07B685B78002B02D17868FFF757FE7B6839
S315080037C0FA7B5A7000BF1037BD4680BD80B586B0FB
S315080037D000AF786187ED020B87ED001BD7E9002360
S315080037E0D7E90201FDF78EF90346002B58D179690E
S315080037F0D7E90223C1E918237969D7E90023C1E982
S315080038001A237B695B78002B4BD07B695B6CD3E909
S3150800381000017B69D3E91A23FDF77EF90346002BDD
S3150800382007D07B69596C7B69D3E91A23C1E9002360
S3150800383012E07B695B6CD3E900017B69D3E9182345
S31508003840FDF74CF90346002B06D07B69596C7B695A
S31508003850D3E91823C1E900237B69D3E914017B69FD
S31508003860D3E91A23FDF758F90346002B06D07B69DE
S31508003870D3E91A237969C1E9142312E07B69D3E9EC
S3150800388014017B69D3E91823FDF728F90346002BB1
S3150800389007D07B69D3E918237969C1E9142300E0C5
S315080038A000BF1837BD4680BD80B58AB000AFF86145
S315080038B087ED040B87ED021B87ED002B0B46FB7685
S315080038C04FF000024FF00003D7E90401FDF706F9AF
S315080038D00346002B40F089804FF000024FF00003AA
S315080038E0D7E90201FDF7FAF80346002B7DD14FF020
S315080038F000024FF00003D7E90001FDF7EFF8034691
S31508003900002B72D1FB69FA7E9A70FB7E012B0CBFE5
S3150800391001230023DBB21A46FB691A70F969D7E955
S315080039200423C1E90423F969D7E90223C1E9062377
S31508003930F969D7E90023C1E90823FB699B6818469A
S31508003940FCF7E0FD4FF000022A4BFCF77FFF02462A
S315080039500B46C7E90823F969D7E90423C1E90A230D
S31508003960D7E90823D7E90201FCF746FE02460B46CB
S31508003970F969C1E90C23D7E90823D7E90001FCF75F
S3150800398065FF02460B46F969C1E90E23FB69DB7838
S31508003990012B2BD1FB69D3E90A234FF000004FF026
S315080039A00001FCF771FC02460B46F969C1E90A23D6
S315080039B0FB69D3E90C234FF000004FF00001FCF738
S315080039C063FC02460B46F969C1E90C23FB69D3E996
S315080039D00E234FF000004FF00001FCF755FC02469D
S315080039E00B46F969C1E90E2300E000BF2837BD463A
S315080039F080BD00BF00408F4080B582B000AF7860C0
S31508003A000B46FB707B685B78002B2ED07B68DB78D7
S31508003A10FA789A4229D07B68D3E90A234FF0000046
S31508003A204FF00001FCF730FC02460B467968C1E905
S31508003A300A237B68D3E90C234FF000004FF00001FE
S31508003A40FCF722FC02460B467968C1E90C237B6821
S31508003A50D3E90E234FF000004FF00001FCF714FCE9
S31508003A6002460B467968C1E90E237B68FA78DA7054
S31508003A7000BF0837BD4680BDB0B584B000AF7860DA
S31508003A8039603B68002B2EDD3868FCF74BFD044691
S31508003A900D467B689B681846FCF734FD02460B46C4
S31508003AA020462946FCF7D2FE02460B46C7E9022302
S31508003AB07B68D3E90C01D7E90223FCF79DFD024692
S31508003AC00B467968C1E90C237B68D3E90E01D7E96F
S31508003AD00223FCF7BBFE02460B467968C1E90E23B2
S31508003AE03A687B689A6000BF1037BD46B0BD0000D3
S31508003AF080B582B000AF03463960FB71FB79042BB1
S31508003B0000F29B8001A252F823F000BF213B000877
S31508003B105B3B0008913B0008C73B0008013C0008D6
S31508003B200421844802F0CAFD0346002B14BF012372
S31508003B300023DAB23B6883F822204FF480614FF005
S31508003B40904002F0BBFD0346002B14BF012300235F
S31508003B50DAB23B6883F8232070E00121754802F049
S31508003B60ADFD0346002B14BF01230023DAB23B68E0
S31508003B7083F8222002216F4802F0A0FD0346002B9D
S31508003B8014BF01230023DAB23B6883F8232055E0EB
S31508003B902021694802F092FD0346002B14BF012339
S31508003BA00023DAB23B6883F822201021624802F02B
S31508003BB085FD0346002B14BF01230023DAB23B68B8
S31508003BC083F823203AE04FF480415A4802F076FD04
S31508003BD00346002B14BF01230023DAB23B6883F89F
S31508003BE022204FF40041534802F068FD0346002B9B
S31508003BF014BF01230023DAB23B6883F823201DE0B3
S31508003C004FF400514B4802F059FD0346002B14BFF0
S31508003C1001230023DAB23B6883F822204FF480514F
S31508003C20444802F04BFD0346002B14BF0123002332
S31508003C30DAB23B6883F8232000E000BF3B6893F8BC
S31508003C402230DBB2002B09D03B6893F82330DBB275
S31508003C50002B03D03B6803225A7528E03B6893F88B
S31508003C602230DBB2002B0CD03B6893F82330DBB252
S31508003C7083F00103DBB2002B03D03B6804225A759C
S31508003C8015E03B6893F82230DBB283F00103DBB220
S31508003C90002B09D03B6893F82330DBB2002B03D006
S31508003CA03B6802225A7502E03B6801225A753B6856
S31508003CB05A7D3B689B7D9A4238D03B689B7D042B96
S31508003CC00AD13B685B7D012B06D13B681B8A013311
S31508003CD09AB23B681A821CE03B689B7D012B0AD18D
S31508003CE03B685B7D042B06D13B681B8A013B9AB275
S31508003CF03B681A820DE03B681A8A3B689B7D99B23D
S31508003D003B685B7D9BB2CB1A9BB213449AB23B6865
S31508003D101A823B685A7D3B689A753B681B8A4FF640
S31508003D20E852934202D93B6800221A8200BF08373C
S31508003D30BD4680BD0004004800080048B0B582B002
S31508003D4000AF03463960FB71A24B1B78DBB2002B30
S31508003D503AD13B68D3E900014FF000024FF0000367
S31508003D60FCF7DAFE0346002B0CD03B68D3E90023A8
S31508003D703968C1E906233B6801229A743B68012227
S31508003D80DA7421E03B68D3E900014FF000024FF0F6
S31508003D900003FCF7A3FE0346002B0FD03B68D3E9CC
S31508003DA00023144683F000453B68C3E906453B6893
S31508003DB002229A743B680222DA7405E03B68002204
S31508003DC09A743B680022DA74FB79042B00F293811B
S31508003DD001A252F823F000BFED3D0008813E00081D
S31508003DE0153F0008A93F0008634000083B689B7C14
S31508003DF0012B10D13B68D3E9062310461946FCF778
S31508003E00D3FE0346DAB2744B1B685A63724B1B68BF
S31508003E1000229A631CE03B689B7C022B10D13B680E
S31508003E20D3E9062310461946FCF7BEFE0346DAB266
S31508003E30694B1B689A63684B1B6800225A6307E044
S31508003E40654B1B6864225A63634B1B6864229A633A
S31508003E503B681B8A07EE903AB8EE677ADFED5F6A31
S31508003E60C7EE267A9FED5E7A67EE877A17EE900A96
S31508003E70FCF76AFB02460B463968C1E902233BE1B7
S31508003E803B689B7C022B10D13B68D3E9062310467E
S31508003E901946FCF789FE0346DAB2524B1B685A6389
S31508003EA0504B1B6800229A631CE03B689B7C012BE5
S31508003EB010D13B68D3E9062310461946FCF774FE71
S31508003EC00346DAB2474B1B689A63464B1B680022C7
S31508003ED05A6307E0434B1B6864225A63414B1B68CD
S31508003EE064229A633B681B8A07EE903AB8EE677AB3
S31508003EF0DFED3D6AC7EE267A9FED397A67EE877A57
S31508003F0017EE900AFCF720FB02460B463968C1E912
S31508003F100223F1E03B689B7C022B10D13B68D3E976
S31508003F20062310461946FCF73FFE0346DAB22F4B26
S31508003F301B681A642D4B1B680022DA631CE03B6879
S31508003F409B7C012B10D13B68D3E906231046194602
S31508003F50FCF72AFE0346DAB2244B1B68DA63234BC6
S31508003F601B6800221A6407E0204B1B686422DA6388
S31508003F701E4B1B6864221A643B681B8A07EE903A3C
S31508003F80B8EE677ADFED1A6AC7EE267A9FED147ADD
S31508003F9067EE877A17EE900AFCF7D6FA02460B46C2
S31508003FA03968C1E90223A7E03B689B7C022B23D131
S31508003FB03B68D3E9062310461946FCF7F5FD034688
S31508003FC0DAB20C4B1B685A630A4B1B6800229A63C9
S31508003FD02FE000BF27030020340500200038914554
S31508003FE00000C842800500200008CF46E8040020EB
S31508003FF00090C946180600203B689B7C012B10D10F
S315080040003B68D3E9062310461946FCF7CDFD03465F
S31508004010DAB23B4B1B689A63394B1B6800225A631A
S3150800402007E0374B1B6864225A63354B1B686422CA
S315080040309A633B681B8A07EE903AB8EE677ADFED1B
S31508004040316AC7EE267A9FED307A67EE877A17EEE1
S31508004050900AFCF779FA02460B463968C1E9022349
S315080040604AE03B689B7C022B10D13B68D3E90623C8
S3150800407010461946FCF798FD0346DAB2234B1B682F
S315080040805A63224B1B6800229A631CE03B689B7CA0
S31508004090012B10D13B68D3E9062310461946FCF7D5
S315080040A083FD0346DAB2194B1B689A63174B1B68E4
S315080040B000225A6307E0154B1B6864225A63134BA8
S315080040C01B6864229A633B681B8A07EE903AB8EE2F
S315080040D0677ADFED0F6AC7EE267A9FED0B7A67EEF1
S315080040E0877A17EE900AFCF72FFA02460B463968CC
S315080040F0C1E9022300E000BF00BF0837BD46B0BDD6
S315080041001806002000A0BE460000C8429C040020F5
S3150800411000E8CB460000000080B582B002AF062258
S3150800412079497A4800F0E0FD0021794803F068FFF4
S315080041300421774803F064FF0021764803F060FF06
S315080041400421744803F05CFF0821734803F058FF04
S315080041500C21714803F054FF0021704803F050FF0A
S3150800416004216E4803F04CFF00216D4803F048FF18
S3150800417004216B4803F044FF6A48FDF7F1F96348E8
S31508004180FDF7EEF96848FFF70BF90122674966481B
S3150800419005F00CF8664803F06BFE664B01221A70B0
S315080041A0654B01221A7000230193012300939FEDAA
S315080041B04E2B9FED4F1B9FED500B604B604A61499C
S315080041C06148FFF78DF901215F48FFF7E1FA012100
S315080041D05D48FFF751FC9FED4A1B9FED430B5A487C
S315080041E0FFF7F4FA00230193012300939FED3E2B7A
S315080041F09FED3F1B9FED400B544B554A554956487A
S31508004200FFF76EF901215448FFF7C2FA0121524817
S31508004210FFF732FC9FED3A1B9FED330B4E48FFF735
S31508004220D5FA00230193012300939FED2F2B9FEDD1
S31508004230301B9FED310B494B494A4A494A48FFF71B
S315080042404FF901214848FFF7A3FA01214648FFF72D
S3150800425013FC9FED2B1B9FED240B4348FFF7B6FA83
S3150800426000230193012300939FED1F2B9FED201B35
S315080042709FED210B3D4B3E4A3E493F48FFF730F93B
S3150800428001213D48FFF784FA01213B48FFF7F4FB7B
S315080042909FED1B1B9FED140B3748FFF797FA00237A
S315080042A00193012300939FED102B9FED111B9FEDAA
S315080042B0120B324B324A33493348FFF711F90121C1
S315080042C03148FFF765FA01212F48FFF7D5FB9FED27
S315080042D00C1B9FED050B2C48FFF778FA00BFBD466F
S315080042E080BD00BFAFF300800000000000000000A2
S315080042F00000000000000840000000000000F03F39
S315080043000000000000005940EC0900208C03002042
S315080043103405002080050020E80400201806002047
S315080043209C040020280300206406002024030020A3
S31508004330CC0500202503002027030020F0060020D6
S3150800434008070020F8060020180700208807002024
S31508004350A007002090070020B007002020080020B2
S31508004360380800202808002048080020B80800203F
S31508004370D0080020C0080020E008002050090020CE
S31508004380680900205809002078090020000000006C
S3150800439080B582B000AF03463960FB715C4B1B7871
S315080043A0DBB2012B40F0A5803B68D3E900013B68EE
S315080043B0D3E90223FBF768FF02460B461046194667
S315080043C04FA3D3E90023FCF7A7FB0346002B0FD026
S315080043D03B6801229A743B680122DA743B68002222
S315080043E01A753B68283300211846FFF705FB26E0B7
S315080043F03B68D3E900013B68D3E90223FBF744FF96
S3150800440002460B46104619463FA3D3E90023FCF79C
S3150800441065FB0346002B0FD03B6802229A743B6863
S315080044200222DA743B6800221A753B682833012198
S315080044301846FFF7E1FA02E03B6800229A743B68E7
S31508004440DB7D002B52D03B689B8C9BB2B3F5167F65
S315080044504FD93B689B7C012B29D1FB79042B39D892
S3150800446001A252F823F000BF7D44000887440008E3
S31508004470914400089B440008A54400083B6841F2A3
S3150800448027221A8227E03B6846F284721A8222E0C3
S315080044903B6846F2C8421A821DE03B6845F65072F0
S315080044A01A8218E03B6846F2F4521A8213E03B6817
S315080044B09B7C022B0FD13B68D3E902014FF0000227
S315080044C0144BFCF70BFB0346002B04D03B68002279
S315080044D01A8200E000BF3B6800229A7439684FF0E0
S315080044E000024FF00003C1E9062302E03B68002200
S315080044F09A8400BF0837BD4680BD00BFAFF3008071
S315080045007B14AE47E17A843F7B14AE47E17A84BFD9
S315080045102703002000001440DFF834D0FEF708FB1C
S315080045200C480D490D4A002302E0D458C450043300
S31508004530C4188C42F9D30A4A0A4C002301E01360D6
S315080045400432A242FBD307F02DFDFDF777FEFEE706
S315080045500080012000000020D4010020F4EE0008AD
S31508004560D80100204C0B0020FEE780B582B000AFD2
S315080045700023FB71032001F03FFC022000F00EF837
S315080045800346002B02D00123FB7101E0FEF70CF96C
S31508004590FB7918460837BD4680BD000080B584B053
S315080045A000AF78600023FB73174B1B78002B23D0D2
S315080045B0164B1A68144B1B7819464FF47A73B3FBDB
S315080045C0F1F3B2FBF3F3184601F04BFC0346002B5C
S315080045D00FD17B680F2B09D8002279684FF0FF307E
S315080045E001F015FC0A4A7B68136007E00123FB7398
S315080045F004E00123FB7301E00123FB73FB7B1846F0
S315080046001037BD4680BD00BF08000020000000200E
S315080046100400002080B400AF064B1B781A46064BF0
S315080046201B681344044A136000BFBD465DF8047B4B
S31508004630704700BF08000020FC09002080B400AFC6
S31508004640034B1B681846BD465DF8047B704700BFE0
S31508004650FC09002080B584B000AF7860FFF7EEFF54
S31508004660B8607B68FB60FB68B3F1FF3F05D00A4B77
S315080046701B781A46FB681344FB6000BFFFF7DEFF92
S315080046800246BB68D31AFA689A42F7D800BF00BF39
S315080046901037BD4680BD00BF0800002080B483B037
S315080046A000AF786039607B689B6823F47C123B68AE
S315080046B01A437B689A6000BF0C37BD465DF8047BD9
S315080046C0704780B483B000AF786039607B689B68B8
S315080046D023F0E0723B681A437B689A6000BF0C3788
S315080046E0BD465DF8047B704780B483B000AF786040
S315080046F07B689B6803F0E07318460C37BD465DF887
S31508004700047B704780B487B000AFF860B9607A6000
S315080047103B60FB6860331A46BB689B0013447B61A9
S315080047207B691A68084B13407A6802F0F8413A68C0
S315080047300A43134343F000427B691A6000BF1C37E3
S31508004740BD465DF8047B704700F0FF0380B485B072
S3150800475000AF786039607B6860331A463B689B0017
S315080047601344FB60FB681B6803F0F84318461437CC
S31508004770BD465DF8047B704780B487B000AFF8602B
S31508004780B9607A60FB6860331A46BB689B001344BD
S315080047907B617B691B6823F000427B681A437B694F
S315080047A01A6000BF1C37BD465DF8047B704780B4AD
S315080047B083B000AF78607B68DB6803F44063002B46
S315080047C001D1012300E0002318460C37BD465DF8E9
S315080047D0047B704780B487B000AFF860B9607A6030
S315080047E0FB6830331A46BB681B0A9B0003F00C03B0
S315080047F013447B617B691A68BB6803F01F031F219A
S3150800480001FA03F3DB431A407B689B0E03F01F0192
S31508004810BB6803F01F0301FA03F31A437B691A60A6
S3150800482000BF1C37BD465DF8047B704780B487B06F
S3150800483000AFF860B9607A60FB6814331A46BB6843
S315080048405B0E9B0003F0040313447B617B691A68C3
S31508004850BB681B0D03F01F03072101FA03F3DB43B3
S315080048601A40BB681B0D03F01F03796801FA03F3AE
S315080048701A437B691A6000BF1C37BD465DF8047B86
S315080048807047000080B485B000AFF860B9607A6000
S31508004890FB68D3F8B020BB68C3F31203DB431A40A6
S315080048A07B6803F018030849D940BB680B40C3F37B
S315080048B012031A43FB68C3F8B02000BF1437BD467D
S315080048C05DF8047B704700BFFFFF070080B483B024
S315080048D000AF78607B689B6803F01F0318460C37A7
S315080048E0BD465DF8047B704780B483B000AF78603E
S315080048F07B689B6823F0204323F03F037A68936024
S3150800490000BF0C37BD465DF8047B704780B483B0A2
S3150800491000AF78607B689B6803F00053B3F1005FD3
S3150800492001D1012300E0002318460C37BD465DF887
S31508004930047B704780B483B000AF78607B689B685F
S3150800494023F0104323F03F0343F080527B689A60BC
S3150800495000BF0C37BD465DF8047B704780B483B052
S3150800496000AF78607B689B6803F08053B3F1805F83
S3150800497001D1012300E0002318460C37BD465DF837
S31508004980047B704780B483B000AF78607B689B680F
S3150800499023F0004323F03F0343F001027B689A604B
S315080049A000BF0C37BD465DF8047B704780B483B002
S315080049B000AF78607B689B6803F00103012B01D187
S315080049C0012300E0002318460C37BD465DF8047B3A
S315080049D0704780B483B000AF78607B689B6823F02B
S315080049E0004323F03F0343F004027B689A6000BF4C
S315080049F00C37BD465DF8047B704780B483B000AFC2
S31508004A0078607B689B6803F00403042B01D10123BB
S31508004A1000E0002318460C37BD465DF8047B704756
S31508004A2080B483B000AF78607B689B6803F00803A6
S31508004A30082B01D1012300E0002318460C37BD4698
S31508004A405DF8047B7047000090B589B000AF7860C8
S31508004A500023FB770023FB607B68002B01D1012331
S31508004A6030E17B681B69002B7B685B6D002B09D1E5
S31508004A707868FCF775FD7B6800229A657B680022DA
S31508004A8083F850207B681B681846FFF73FFF0346EC
S31508004A90002B04D07B681B681846FFF725FF7B6848
S31508004AA01B681846FFF75AFF0346002B15D17B688B
S31508004AB01B681846FFF73EFF844B1B689B09844A10
S31508004AC0A2FB03239B0901335B00FB6002E0FB6842
S31508004AD0013BFB60FB68002BF9D17B681B68184615
S31508004AE0FFF73CFF0346002B0DD17B685B6D43F057
S31508004AF010027B685A657B689B6D43F001027B68F0
S31508004B009A650123FB777B681B681846FFF775FFD4
S31508004B1078617B685B6D03F01003002B40F0C98059
S31508004B207B69002B40F0C5807B685B6D23F481733D
S31508004B3043F002027B685A657B681B681846FFF7D4
S31508004B4035FF0346002B15D16248FFF72FFF0446B1
S31508004B506148FFF72BFF03461C436048FFF726FF13
S31508004B6003462343002B05D17B685B6819465C48DE
S31508004B70FFF794FD7B685B7E5A037B685B6B1A4381
S31508004B807B68DB681A437B689B681A437B6893F8E3
S31508004B9020301B041343BB617B6893F82030012B3C
S31508004BA006D17B685B6A013B5B04BA691343BB6148
S31508004BB07B689B6A002B09D07B689B6A03F470723A
S31508004BC07B68DB6A1343BA691343BB617B681B685E
S31508004BD0DA68444B13407A681268B9690B43D360A4
S31508004BE07B681B681846FFF71BFF38617B69002B3B
S31508004BF03DD13B69002B3AD17B681B7E9A037B68C3
S31508004C0093F830305B001343BB617B681B68DB6835
S31508004C1023F4804323F002037A681268B9690B43C8
S31508004C20D3607B6893F83830012B18D17B681B68F2
S31508004C301B6923F4FF6323F004037A68D16B7A684F
S31508004C40126C11437A68526C11437A68926C0A4363
S31508004C501A437B681B6842F001021A6107E07B6809
S31508004C601B681A697B681B6822F001021A617B6857
S31508004C701B69012B0CD17B681B681B6B23F00F018A
S31508004C807B68DB695A1E7B681B680A431A6307E060
S31508004C907B681B681A6B7B681B6822F00F021A6315
S31508004CA07B685B6D23F0030343F001027B685A655A
S31508004CB007E07B685B6D43F010027B685A65012349
S31508004CC0FB77FB7F18462437BD4690BD00000020C1
S31508004CD0632D3E05000004500001045000020450F4
S31508004CE00003045007C0F0FF80B586B000AFF86037
S31508004CF0B9607A605348FFF7E9FD3861FB681B68BD
S31508004D001846FFF77AFE0346002B40F09380FB68AF
S31508004D1093F85030012B01D102238EE0FB68012263
S31508004D2083F85020FB681B68474A934208D03B69C2
S31508004D30002B05D03B69052B02D03B69092B72D1A4
S31508004D40F86800F09DFC0346FB75FB7D002B65D1DA
S31508004D50FB685B6D23F4706323F0010343F48072F0
S31508004D60FB685A65FB681B68384A934202D0FB68A1
S31508004D701B6800E0364BFA681268934202D03B691A
S31508004D80002B05D1FB685B6D23F48012FB685A651E
S31508004D90FB685B6D03F48053002B06D0FB689B6DA4
S31508004DA023F00602FB689A6502E0FB6800229A6512
S31508004DB0FB68DB6C274ADA62FB68DB6C264A1A63F7
S31508004DC0FB68DB6C254A5A63FB681B681C221A6061
S31508004DD0FB68002283F85020FB681B685A68FB684A
S31508004DE01B6842F010025A60FB681B68DA68FB68A9
S31508004DF01B6842F00102DA60FB68D86CFB681B6826
S31508004E0040331946BA687B6801F0F0F80346FB752B
S31508004E10FB681B681846FFF7DCFD0DE0FB680022FF
S31508004E2083F8502008E00123FB75FB68002283F80D
S31508004E30502001E00223FB75FB7D18461837BD4656
S31508004E4080BD00BF00030450000204500001045056
S31508004E50000004508D57000865580008815800085E
S31508004E6080B483B000AF786000BF0C37BD465DF8EC
S31508004E70047B704780B483B000AF786000BF0C37FE
S31508004E80BD465DF8047B704780B483B000AF786098
S31508004E9000BF0C37BD465DF8047B704780B5B6B0D9
S31508004EA000AF78603960002387F8D7300023BB60ED
S31508004EB07B6893F85030012B01D10223C9E37B6844
S31508004EC0012283F850207B681B681846FFF795FD7A
S31508004ED00346002B40F0AA833B685B68C7F8D030CE
S31508004EE03B685B68052B24D83B685B68023B032B51
S31508004EF01BD801A252F823F0094F0008114F0008E9
S31508004F00194F0008214F00080C23C7F8D03010E0CD
S31508004F101223C7F8D0300CE01823C7F8D03008E0C1
S31508004F204FF48073C7F8D03003E00623C7F8D030B3
S31508004F3000BF7B6818683B681B681A46D7F8D0100C
S31508004F40FFF748FC7B681B681846FFF756FDC7F84D
S31508004F50CC007B681B681846FFF762FDC7F8C800D7
S31508004F60D7F8CC30002B40F0A481D7F8C830002BF6
S31508004F7040F09F817B6818683B6819683B689B68A6
S31508004F801A46FFF753FC3B685A697B681B68DB685F
S31508004F90DB0803F003035B0002FA03F3C7F8C43027
S31508004FA03B681B69042B0AD07B6818683B6819693B
S31508004FB03B681A68D7F8C430FFF7A4FB79E17B6829
S31508004FC01B6800211846FFF7C1FB0346C3F312030B
S31508004FD0002B0AD17B681B6800211846FFF7B6FB31
S31508004FE003469B0E03F01F021EE07B681B68002128
S31508004FF01846FFF7ABFB0346C7F8B830D7F8B83002
S3150800500093FAA3F3C7F8B430D7F8B430C7F8BC306E
S31508005010D7F8BC30002B01D1202304E0D7F8BC30E8
S31508005020B3FA83F3DBB21A463B681B68C3F3120371
S31508005030002B05D13B681B689B0E03F01F0318E085
S315080050403B681B68C7F8AC30D7F8AC3093FAA3F3C3
S31508005050C7F8A830D7F8A830C7F8B030D7F8B030B6
S31508005060002B01D1202304E0D7F8B030B3FA83F33C
S31508005070DBB29A4206D17B681B68002200211846DB
S31508005080FFF77AFB7B681B6801211846FFF75EFB72
S315080050900346C3F31203002B0AD17B681B68012160
S315080050A01846FFF753FB03469B0E03F01F021EE04C
S315080050B07B681B6801211846FFF748FB0346C7F8BB
S315080050C0A030D7F8A03093FAA3F3C7F89C30D7F8E6
S315080050D09C30C7F8A430D7F8A430002B01D1202380
S315080050E004E0D7F8A430B3FA83F3DBB21A463B6878
S315080050F01B68C3F31203002B05D13B681B689B0E84
S3150800510003F01F0318E03B681B68C7F89430D7F80C
S31508005110943093FAA3F3C7F89030D7F89030C7F8CD
S315080051209830D7F89830002B01D1202304E0D7F81F
S315080051309830B3FA83F3DBB29A4206D17B681B68D0
S31508005140002201211846FFF717FB7B681B6802211E
S315080051501846FFF7FBFA0346C3F31203002B0AD1DE
S315080051607B681B6802211846FFF7F0FA03469B0E78
S3150800517003F01F021EE07B681B6802211846FFF732
S31508005180E5FA0346C7F88830D7F8883093FAA3F3C8
S31508005190C7F88430D7F88430C7F88C30D7F88C3005
S315080051A0002B01D1202304E0D7F88C30B3FA83F31F
S315080051B0DBB21A463B681B68C3F31203002B05D102
S315080051C03B681B689B0E03F01F0314E03B681B68D3
S315080051D0FB67FB6F93FAA3F3BB67BB6FC7F8803017
S315080051E0D7F88030002B01D1202304E0D7F880308F
S315080051F0B3FA83F3DBB29A4206D17B681B680022B6
S3150800520002211846FFF7B8FA7B681B68032118467F
S31508005210FFF79CFA0346C3F31203002B0AD17B68F7
S315080052201B6803211846FFF791FA03469B0E03F005
S315080052301F0217E07B681B6803211846FFF786FAEA
S3150800524003463B673B6F93FAA3F3FB66FB6E7B67EC
S315080052507B6F002B01D1202303E07B6FB3FA83F326
S31508005260DBB21A463B681B68C3F31203002B05D151
S315080052703B681B689B0E03F01F0311E03B681B6825
S315080052807B667B6E93FAA3F33B663B6EBB66BB6E8F
S31508005290002B01D1202303E0BB6EB3FA83F3DBB204
S315080052A09A4206D17B681B68002203211846FFF73D
S315080052B063FA7B681B681846FFF778FB0346002BE2
S315080052C040F040817B6818683B6819683B68DB6872
S315080052D01A46FFF7D7FA3B68DB688F4A934240F0D5
S315080052E031817B6818683B681B68C3F31203002B7F
S315080052F00BD13B681B689B0E013303F01F03092B78
S3150800530094BF01230023DBB219E03B681B68BB6529
S31508005310BB6D93FAA3F37B657B6DFB65FB6D002B79
S3150800532001D1202303E0FB6DB3FA83F3DBB201332B
S3150800533003F01F03092B94BF01230023DBB2002BC4
S3150800534079D03B681B68C3F31203002B07D13B686F
S315080053501B689B0E01339B0603F0F84215E03B6879
S315080053601B68FB64FB6C93FAA3F3BB64BB6C3B65DD
S315080053703B6D002B01D1202303E03B6DB3FA83F389
S31508005380DBB201339B0603F0F8423B681B68C3F3A4
S315080053901203002B09D13B681B689B0E013303F0EF
S315080053A01F03012101FA03F317E03B681B683B64FE
S315080053B03B6C93FAA3F3FB63FB6B7B647B6C002B60
S315080053C001D1202303E07B6CB3FA83F3DBB201330C
S315080053D003F01F03012101FA03F342EA03013B68C4
S315080053E01B68C3F31203002B0AD13B681B689B0E8C
S315080053F0013303F01F0213465B0013441B0518E034
S315080054003B681B687B637B6B93FAA3F33B633B6B3D
S31508005410BB63BB6B002B01D1202303E0BB6BB3FA44
S3150800542083F3DBB2013303F01F0213465B00134418
S315080054301B050B4381E03B681B68C3F31203002B73
S3150800544007D13B681B689B0E01339B0603F0F842A5
S3150800545015E03B681B68BB62BB6A93FAA3F37B62E1
S315080054607B6AFB62FB6A002B01D1202303E0FB6AFF
S31508005470B3FA83F3DBB201339B0603F0F8423B68C9
S315080054801B68C3F31203002B09D13B681B689B0EEC
S31508005490013303F01F03012101FA03F317E03B6808
S315080054A01B68FB61FB6993FAA3F3BB61BB693B62AB
S315080054B03B6A002B01D1202303E03B6AB3FA83F34E
S315080054C0DBB2013303F01F03012101FA03F342EAB9
S315080054D003013B681B68C3F31203002B0DD13B681D
S315080054E01B689B0E013303F01F0213465B0013442F
S315080054F01E3B1B0543F000731EE03B681B683B61BF
S315080055003B6993FAA3F3FB60FB687B617B69002B1D
